S0150000456D5379735F50726F6A6563742E73726563E8
S113000071C000008EC000008CC000008AC00000D7
S113001088C000009AC0000084C0000082C00000B4
S113002080C000007EC000007CC000007AC00000D8
S113003078C0000076C0000074C0000072C00000E8
S113004070C000006EC000006CC000006AC00000F8
S113005068C0000066C0000064C0000062C0000008
S113006060C000005EC000005CC000005AC0000018
S113007058C0000056C0000054C0000052C0000028
S113008050C000004EC000004CC000004AC0000038
S113009048C0000046C0000044C0000042C0000048
S11300A040C000003EC000003CC000003AC0000058
S11300B038C0000036C0000034C0000032C0000068
S11300C030C000002EC000002CC000002AC0000078
S11300D028C0000026C0000024C0000022C0000088
S11300E020C0000011241FBECFEFD1E2DEBFCDBF80
S11300F000E00CBF12E0A0E0B2E0E6EAFDE000E0C0
S11301000BBF02C007900D92A033B107D9F722E0CC
S1130110A0E3B2E001C01D92A033B207E1F7B1D071
S113012040C66ECF8DB18F7E8DB98EB180618EB990
S1130130EAE6F0E080818D7F808380818160808326
S11301408DB380618DBB789408951F920F920FB682
S11301500F9211248F9380910002882319F010923A
S1130160000203C081E0809300028F910F900FBEC4
S11301700F901F90189587B1886387B920E030E00D
S11301800FC098B188E3892788B94FE382E49FE0E0
S1130190415080409040E1F700C000002F5F3F4F86
S11301A02630310574F3089580E480937C0087E859
S11301B080937A0008958FEF81B987B1836087B9FE
S11301C00895662321F098B1916098B903C098B15D
S11301D09E7F98B982B988B1826088B989EF90E02E
S11301E00197F1F700C0000088B18D7F88B989EFCD
S11301F090E00197F1F700C00000089560E0E1CFBE
S1130200089561E0DECF0895CF93DF931F921F928C
S1130210CDB7DEB7198290E49A83823008F081E08A
S1130220E1E0F0E0EC0FFD1FE80FF11D8081860F87
S11302308068E4DF0F900F90DF91CF910895BBDFCA
S11302408FE097E20197F1F700C0000088E3D6DF62
S11302508CE0D4DF86E0D2DF81E0D0DF87EA91E66C
S11302600197F1F700C000000895CF93DF93EC01EC
S113027002C02196C6DF88818111FBCFDF91CF9127
S11302800895CF93DF93CDB7DEB768970FB6F89490
S1130290DEBF0FBECDBFD3DF61E080E0B5DF81E01C
S11302A092E0E3DF68DF3EDF7FDF80910002882396
S11302B009F4D5C0EAE7F0E080818064808380910E
S11302C07A0086FDFCCF809178006091790070E01F
S11302D0762F6627682B80E090E060D127E339E829
S11302E041EA50E411D220E030EC4FE754E4C2D0AC
S11302F06B017C0120E030E04AE754E405D222D1CE
S11303004B015C01AB01569547955695479556951B
S113031047959A01A5ECB0E25AD2929582958F70D6
S113032089279F70892768EE73E0869F9001879FD5
S1130330300D969F300D1124821A930A9F928F924A
S11303409A0145D2929582958F7089279F7089274B
S11303509F938F9380E192E09F938F938E010F5F21
S11303601F4F1F930F9342D261E081E04DDF8BE179
S113037092E07BDFC80179DF0FB6F894DEBF0FBED1
S1130380CDBF20E030E040EC5FE3C701B6016ED0A2
S1130390882324F488B1806288B90BC020E030E05F
S11303A0A901C701B60162D088231CF488B18F7DEE
S11303B088B920E030E040EC5FE3C701B601A0D18A
S11303C018166CF420E030E040E650E4C701B601B2
S11303D04DD0882324F488B1886088B90CC020E00B
S11303E030E040EC5FE3C701B60140D088231CF441
S11303F088B1877F88B920E030E040E650E4C70147
S1130400B6017ED1882324F088B1806188B90CC0FC
S113041020E030E040E650E4C701B60127D088234D
S11304201CF488B18F7E88B9188E1F8A05C08F8905
S1130430988D0196988F8F8B8F89988D80339547EF
S1130440B4F31E8A1D8A05C08D899E8901969E8BF0
S11304508D8B8D899E8980339547B4F303C063E007
S113046081E0D2DE84E292E000DF1FCFD4D008F432
S113047081E008950CD00AC102D140F0F9D030F0E7
S113048021F45F3F19F0EBC0511134C1EEC00FD11C
S113049098F39923C9F35523B1F3951B550BBB2747
S11304A0AA2762177307840738F09F5F5F4F220FF4
S11304B0331F441FAA1FA9F333D00E2E3AF0E0E8ED
S11304C030D091505040E695001CCAF729D0FE2F39
S11304D027D0660F771F881FBB1F261737074807CB
S11304E0AB07B0E809F0BB0B802DBF01FF27935881
S11304F05F4F2AF09E3F510568F0B1C0FBC05F3FDB
S1130500ECF3983EDCF3869577956795B795F79568
S11305109F5FC9F7880F911D9695879597F9089560
S1130520E1E0660F771F881FBB1F621773078407FC
S1130530BA0720F0621B730B840BBA0BEE1F88F70B
S1130540E0950895BCD088F09F5790F0B92F992773
S1130550B751A0F0D1F0660F771F881F991F1AF0CA
S1130560BA95C9F712C0B13081F0C3D0B1E0089593
S1130570C0C0672F782F8827B85F39F0B93FCCF314
S1130580869577956795B395D9F73EF490958095C0
S1130590709561957F4F8F4F9F4F0895E89409C0E0
S11305A097FB3EF490958095709561957F4F8F4FA2
S11305B09F4F9923A9F0F92F96E9BB279395F695B8
S11305C0879577956795B795F111F8CFFAF4BB0F36
S11305D011F460FF1BC06F5F7F4F8F4F9F4F16C09A
S11305E0882311F096E911C0772321F09EE8872F24
S11305F0762F05C0662371F096E8862F70E060E0E0
S11306002AF09A95660F771F881FDAF7880F969558
S1130610879597F90895990F0008550FAA0BE0E8FC
S1130620FEEF16161706E807F907C0F012161306B0
S1130630E407F50798F0621B730B840B950B39F4F0
S11306400A2661F0232B242B252B21F408950A2656
S113065009F4A140A6958FEF811D811D089597F996
S11306609F6780E870E060E008959FEF80EC089554
S113067000240A941616170618060906089500247D
S11306800A9412161306140605060895092E0394F7
S1130690000C11F4882352F0BB0F40F4BF2B11F46B
S11306A060FF04C06F5F7F4F8F4F9F4F089557FDCA
S11306B09058440F551F59F05F3F71F04795880FCC
S11306C097FB991F61F09F3F79F087950895121663
S11306D013061406551FF2CF4695F1DF08C016160F
S11306E017061806991FF1CF8695710561050894C0
S11306F00895E894BB2766277727CB0197F90895D7
S11307008ADF08F48FEF08950BD0C0CFB1DF28F053
S1130710B6DF18F0952309F0A2CFA7CF1124EACFB2
S1130720C6DFA0F3959FD1F3950F50E0551F629F4C
S1130730F001729FBB27F00DB11D639FAA27F00D36
S1130740B11DAA1F649F6627B00DA11D661F829F5D
S11307502227B00DA11D621F739FB00DA11D621F42
S1130760839FA00D611D221F749F3327A00D611D5F
S1130770231F849F600D211D822F762F6A2F112441
S11307809F5750408AF0E1F088234AF0EE0FFF1F94
S1130790BB1F661F771F881F91505040A9F79E3FCB
S11307A0510570F05CCFA6CF5F3FECF3983EDCF3CD
S11307B0869577956795B795F795E7959F5FC1F708
S11307C0FE2B880F911D9695879597F90895A29F02
S11307D0B001B39FC001A39F700D811D1124911D11
S11307E0B29F700D811D1124911D08950F931F93C5
S11307F0CF93DF93CDB7DEB72E970FB6F894DEBF55
S11308000FBECDBF0E891F8986E08C831A830983AE
S11308108FEF9FE79E838D83AE01465E5F4F688DA9
S1130820798DCE01019610D0EF81F885E00FF11F8C
S113083010822E960FB6F894DEBF0FBECDBFDF91A7
S1130840CF911F910F9108952F923F924F925F92F3
S11308506F927F928F929F92AF92BF92CF92DF92CC
S1130860EF92FF920F931F93CF93DF93CDB7DEB731
S11308702B970FB6F894DEBF0FBECDBF6C017B0182
S11308808A01FC0117821682838181FFBFC1CE01D8
S113089001963C01F6019381F70193FD859193FF45
S11308A081917F01882309F4ADC1853239F493FD28
S11308B0859193FF81917F01853221F4B60190E007
S11308C0D6D1E8CF912C212C312CFFE1F315D8F0AF
S11308D08B3279F038F4803279F08332A1F4232D0D
S11308E020611DC08D3261F0803369F4232D2160B5
S11308F016C0832D8260382EE32DE4603E2E2AC07C
S1130900F32DF8601DC037FC2DC020ED280F2A30D0
S113091040F08E32B9F436FC75C1232D2064322E9A
S113092019C036FE06C08AE0989E200D1124922E2E
S113093011C0EAE02E9E200D1124222EF32DF06228
S11309403F2E08C08C3621F4832D8068382E02C0D7
S1130950883641F4F70193FD859193FF81917F01DE
S11309608111B3CF982F9F7D9554933028F40C5F59
S11309701F4F9FE399830DC0833631F0833771F0A5
S1130980833509F055C020C0F801808189830E5F4A
S11309901F4F88248394912C530112C02801F2E044
S11309A04F0E511CF801A080B18036FE03C0692DA2
S11309B070E002C06FEF7FEFC5014ED14C018201A0
S11309C0F32DFF773F2E15C0280122E0420E511C63
S11309D0F801A080B18036FE03C0692D70E002C02A
S11309E06FEF7FEFC5012DD14C01F32DF0683F2E41
S11309F0820133FC19C0822D90E088169906A0F478
S1130A00B60180E290E033D12A94F5CFF50137FCAA
S1130A10859137FE81915F01B60190E028D12110C4
S1130A202A9421E0821A91088114910479F7E1C093
S1130A30843611F0893639F5F80137FE07C0608134
S1130A407181828193810C5F1F4F08C06081718125
S1130A50072E000C880B990B0E5F1F4FF32DFF76AA
S1130A603F2E97FF09C090958095709561957F4FB3
S1130A708F4F9F4FF0683F2E2AE030E0A30133D11F
S1130A80882E861844C0853731F4232D2F7EB22E4C
S1130A902AE030E025C0932D997FB92E8F36C1F01E
S1130AA018F4883579F0AEC0803719F0883721F012
S1130AB0A9C0E92FE061BE2EB4FE0DC0FB2DF46089
S1130AC0BF2E09C034FE0AC0292F2660B22E06C0EC
S1130AD028E030E005C020E130E002C020E132E04F
S1130AE0F801B7FE07C060817181828193810C5F38
S1130AF01F4F06C06081718180E090E00E5F1F4F40
S1130B00A301F1D0882E8618FB2DFF773F2E36FEE9
S1130B100DC0232D2E7FA22E891458F434FE0BC051
S1130B2032FC09C0832D8E7EA82E05C0B82CA32CC0
S1130B3003C0B82C01C0B92CA4FE0FC0FE01E80DFF
S1130B40F11D8081803321F49A2D997EA92E09C04C
S1130B50A2FE06C0B394B39404C08A2D867809F02B
S1130B60B394A3FC10C0A0FE06C0B21480F4280CF9
S1130B70922C9B180DC0B21458F4B60180E290E098
S1130B8076D0B394F8CFB21418F42B1802C0982C72
S1130B90212CA4FE0FC0B60180E390E068D0A2FE31
S1130BA016C0A1FC03C088E790E002C088E590E08D
S1130BB0B6010CC08A2D867851F0A1FE02C08BE2EA
S1130BC001C080E2A7FC8DE2B60190E050D0891408
S1130BD030F4B60180E390E04AD09A94F8CF8A9436
S1130BE0F301E80DF11D8081B60190E040D0811041
S1130BF0F6CF222009F44ECEB60180E290E037D041
S1130C002A94F7CFF6018681978102C08FEF9FEF78
S1130C102B960FB6F894DEBF0FBECDBFDF91CF91F8
S1130C201F910F91FF90EF90DF90CF90BF90AF9006
S1130C309F908F907F906F905F904F903F902F90F8
S1130C400895FC010590615070400110D8F780951B
S1130C5090958E0F9F1F0895FC0161507040019084
S1130C600110D8F7809590958E0F9F1F08950F93CC
S1130C701F93CF93DF93FB01238121FD03C08FEFEB
S1130C809FEF2CC022FF16C04681578124813581F5
S1130C904217530744F4A081B1819D012F5F3F4F58
S1130CA0318320838C93268137812F5F3F4F378395
S1130CB0268314C08B01EC01FB010084F185E02D37
S1130CC01995892BE1F6D80116968D919C91179769
S1130CD0019617969C938E931697CE01DF91CF9130
S1130CE01F910F910895FA01AA27283051F120315C
S1130CF081F1E8946F936E7F6E5F7F4F8F4F9F4FAC
S1130D00AF4FB1E03ED0B4E03CD0670F781F891FED
S1130D109A1FA11D680F791F8A1F911DA11D6A0FBB
S1130D20711D811D911DA11D20D009F468943F916E
S1130D302AE0269F11243019305D3193DEF6CF016D
S1130D400895462F4770405D4193B3E00FD0C9F733
S1130D50F6CF462F4F70405D4A3318F0495D31FDA0
S1130D604052419302D0A9F7EACFB4E0A6959795F3
S1130D70879577956795BA95C9F7009761057105C9
S1130D8008959B01AC010A2E069457954795379513
S1130D902795BA95C9F7620F731F841F951FA01D6D
S1090DA00895F894FFCF52
S1130DA601564F4C544147452053435245454E0046
S1130DB625752E2530327556202000566F6C7461C9
S1130DC66765200053797374656D204F46460000AD
S9030000FC
