S0150000456D5379735F50726F6A6563742E73726563E8
S113000029C3000047C3000045C3000043C30000E8
S113001041C30000F1C500003DC300003BC3000024
S113002039C3000037C3000035C3000033C30000E8
S113003031C300002FC300002DC300002BC30000F8
S113004029C3000027C3000025C3000023C3000008
S113005021C300001FC300001DC30000A6C500008B
S113006019C3000017C3000015C3000013C3000028
S113007011C300000FC300000DC300000BC3000038
S113008009C3000007C3000005C3000003C3000048
S113009001C30000FFC20000FDC20000FBC200005B
S11300A0F9C20000F7C20000F5C20000F3C200006C
S11300B0F1C20000EFC20000EDC20000EBC200007C
S11300C0E9C20000E7C20000E5C20000E3C200008C
S11300D0E1C20000DFC20000DDC20000DBC200009C
S11300E0D9C20000EF03038002CF0300C130ED0446
S11300F064031281E803850078CB05392C003402AF
S1130100F70120EA020000C00123C10110C5023E2C
S113011028C701863601483701003A0155B102006B
S113012018B603088227F20100260101E00F0F31FF
S11301302B0C0E084EF1370710030E0900E10F00D7
S11301400E1403110731C148080F0C31360F11800A
S113015029800000000000003E5B4F5B3E3E6B4F79
S11301606B3E1C3E7C3E1C183C7E3C181C577D5745
S11301701C1C5E7F5E1C00183C1800FFE7C3E7FFF1
S11301800018241800FFE7DBE7FF30483A060E2684
S113019029792926407F050507407F05253F5A3CDC
S11301A0E73C5A7F3E1C1C08081C1C3E7F14227F1F
S11301B022145F5F005F5F06097F017F00668995F7
S11301C06A606060606094A2FFA29408047E0408E0
S11301D010207E201008082A1C08081C2A08081E63
S11301E0101010100C1E0C1E0C30383E3830060E49
S11301F03E0E06000000000000005F000000070043
S11302000700147F147F14242A7F2A1223130864FE
S11302106236495620500008070300001C224100A2
S11302200041221C002A1C7F1C2A08083E080800E2
S11302308070300008080808080000606000201082
S11302400804023E5149453E00427F40007249493C
S113025049462141494D331814127F10274545451D
S1130260393C4A494931412111090736494949363E
S1130270464949291E0000140000004034000000D3
S11302800814224114141414140041221408020105
S11302905909063E415D594E7C1211127C7F494931
S11302A049363E414141227F4141413E7F494949CE
S11302B0417F090909013E414151737F0808087FC4
S11302C000417F41002040413F017F081422417FCB
S11302D0404040407F021C027F7F0408107F3E4163
S11302E041413E7F090909063E4151215E7F0919BA
S11302F02946264949493203017F01033F404040D2
S11303003F1F2040201F3F4038403F6314081463C0
S113031003047804036159494D43007F414141027C
S113032004081020004141417F04020102044040BE
S1130330404040000307080020545478407F28447C
S113034044383844444428384444287F3854545466
S11303501800087E090218A4A49C787F0804047875
S113036000447D40002040403D007F1028440000B0
S1130370417F40007C047804787C08040478384485
S1130380444438FC1824241818242418FC7C080439
S11303900408485454542404043F44243C4040205A
S11303A07C1C2040201C3C4030403C442810284405
S11303B04C9090907C4464544C44000836410000B6
S11303C000770000004136080002010204023C26C6
S11303D023263C1EA1A161123A4040207A3854548D
S11303E05559215555794122545478422155547810
S11303F04020545579400C1E5272123955555559A6
S1130400395454545939555454580000457C4100CA
S113041002457D420001457C407D1211127DF02889
S11304202528F07C545545002054547C547C0A09FA
S11304307F4932494949323A4444443A324A484865
S1130440303A4141217A3A42402078009DA0A07D73
S11304503D4242423D3D4040403D3C24FF2424482F
S11304607E4943662B2FFC2F2BFF0929F620C088D9
S11304707E090320545479410000447D41304848AA
S11304804A32384040227A007A0A0A727D0D1931C4
S11304907D2629292F28262929292630484D402020
S11304A0380808080808080808382F10C8ACBA2FFC
S11304B0102834FA00007B000008142A14222214A5
S11304C02A14085500550055AA55AA55AAFF55FFE8
S11304D055FF000000FF00101010FF00141414FF5B
S11304E0001010FF00FF1010F010F0141414FC00A2
S11304F01414F700FF0000FF00FF1414F404FC14AC
S11305001417101F10101F101F1414141F001010A4
S113051010F0000000001F101010101F1010101019
S1130520F010000000FF101010101010101010FF39
S113053010000000FF140000FF00FF00001F101750
S11305400000FC04F414141710171414F404F40039
S113055000FF00F714141414141414F700F71414FF
S113056014171410101F101F141414F4141010F086
S113057010F000001F101F0000001F14000000FCFA
S1130580140000F010F01010FF10FF141414FF14E6
S11305901010101F00000000F010FFFFFFFFFFF01D
S11305A0F0F0F0F0FFFFFF0000000000FFFF0F0F6E
S11305B00F0F0F3844443844FC4A4A4A347E02023E
S11305C00606027E027E0263554941633844443C78
S11305D004407E201E2006027E020299A5E7A5990A
S11305E01C2A492A1C4C7201724C304A4D4D303041
S11305F048784830BC625A463D3E494949007E012C
S113060001017E2A2A2A2A2A44445F444440514A4A
S1130610444040444A51400000FF0103E080FF0091
S11306200008086B6B083612362436060F090F06CD
S1130630000018180000001010003040FF010100F5
S11306401F01011E00191D1712003C3C3C3C000018
S11306500000000011241FBECFEFD1E2DEBFCDBFEA
S113066000E00CBF12E0A0E0B2E0E2E7F9E100E054
S11306700BBF02C007900D92A432B107D9F722E054
S1130680A4E2B2E001C01D92A433B207E1F7C3D2E1
S11306900C94B70CB5CC80E480937C0087E88093FD
S11306A07A000895CF92DF92EF92FF92CF93C0E049
S11306B0C12CD12C76011DC0EAE7F0E08081806472
S11306C0808380917A0086FDFCCF20917800809110
S11306D0790090E0982F8827822B092E000CAA0B12
S11306E0BB0BC80ED91EEA1EFB1E81E090E006D4A7
S11306F0CF5FCA3008F3C701B6012AE030E040E01A
S113070050E029D6CA01B9010DD5CF91FF90EF90E1
S1130710DF90CF9008958DB18F7E8DB98EB18061B9
S11307208EB9EAE6F0E080818C7F808380818260EC
S113073080838DB380618DBB089595B19F7B95B9FE
S113074095B19F7E95B990E0B2D385B1806485B9A7
S1130750089595B19F7B95B995B1906195B990E055
S1130760A6D385B1806485B9089585B18F7E85B996
S113077085B18F7B85B9089585B1806485B986E09C
S11307808A95F1F700C0089585B1806185B985B176
S11307908F7B85B9089585B1806485B986E08A9593
S11307A0F1F700C0089590E082C30895DF92EF92BC
S11307B0FF920F931F93CF93DF9384B1806784B923
S11307C085B1806485B985B1806185B985B1806260
S11307D085B985B18F7D85B987E893E10197F1F7F4
S11307E000C0000085B1806285B9EBE7F2E931977A
S11307F0F1F700C00000C4EED0E022C02296FC0154
S1130800D4900D2D0F77B1DF812FCDDFB5DF00231D
S113081079F0BADF10E009C07E01FFEFEF1AFF0A9A
S1130820FE018491C0DF1F5FE7011017A8F3B3DF57
S1130830DD2034F48BE792E90197F1F700C0000062
S1130840CE010196FE0114911111D8CFDF91CF9101
S11308501F910F91FF90EF90DF900895CF938370D5
S1130860809325028130A1F028F08230F9F08330A2
S113087059F138C080EF90E090930602809305020E
S113088080E491E09093040280930302C8E42BC0B7
S113089080E491E0909306028093050280EF90E05B
S11308A09093040280930302C8E21DC080EF90E09D
S11308B0909306028093050280E491E090930402F1
S11308C080930302C8E80FC080E491E0909306028D
S11308D08093050280EF90E09093040280930302DA
S11308E0C8EE01C0C0E086E328DF8C2F32DFCF9151
S11308F00895CF92DF92EF92FF920F931F93CF93BD
S1130900DF936C017B01480F591F8A0101501109C3
S1130910EB01C20FD31F21978AE20FDF8D2D19DF60
S11309208C2D17DF812F15DF802F13DF8BE205DF7E
S11309308F2D0FDF8E2D0DDF8D2F0BDF8C2F09DF19
S11309408CE2FBDEDF91CF911F910F91FF90EF902E
S1130950DF90CF900895811101C081E0809300025F
S113096008958F929F92AF92BF92CF92DF92EF92AF
S1130970FF920F931F93CF93DF93EA015901812EC6
S1130980912CB7DF8CE2D9DEFFDEC12CD12C7601AD
S11309900BC0882D992D8BD2C801992788D28FEF4F
S11309A0C81AD80AE80AF80A9E01D501F6D4C61670
S11309B0D706E806F90668F3EEDEDF91CF911F91C2
S11309C00F91FF90EF90DF90CF90BF90AF909F90EA
S11309D08F9008958F929F92AF92BF92CF92DF92A1
S11309E0EF92FF920F931F93CF93DF9390EE980FA4
S11309F0903608F064C05A016B01882E912C42C0D5
S1130A00882D90E0FC01EE0FFF1FEE0FFF1FE80F93
S1130A10F91FE92CF12CEE0DFF1DED5AFE4FD49178
S1130A20C0E02DC02C2F30E08D2F90E00C2E02C0A2
S1130A30959587950A94E2F780FF05C0009101021D
S1130A401091020204C000912602109127024091E5
S1130A50000250E0249FB001259F700D349F700D5B
S1130A601124E49EC001E59E900DF49E900D112486
S1130A706A0D7B1D9A018C0D9D1D73DFCF5FC830FD
S1130A8088F2939484E0891508F0BACF409100026B
S1130A9050E09A01220F331F220F331F220F331FFE
S1130AA0CA01880F991F880F991F840F951F009101
S1130AB0260210912702B5018C0D9D1D52DFDF9196
S1130AC0CF911F910F91FF90EF90DF90CF90BF9047
S1130AD0AF909F908F900895EF92FF920F931F9382
S1130AE0CF93DF937C01EB018A0112C09FEFE91AD7
S1130AF0F90AA801BE016EDF8091000290E09C011A
S1130B00220F331F820F931F880F991FC80FD91FFD
S1130B10F70180818111EACFDF91CF911F910F916D
S1130B20FF90EF900895CF92DF92EF92FF920F9390
S1130B301F93CF93DF93EC010D2F10E0209103025C
S1130B4030910402409105025091060260E070E089
S1130B5080E090E0CEDE8CE2F0DD16DEC12CD12CFC
S1130B6076010BC0802F912FA2D1CE0199279FD15E
S1130B708FEFC81AD80AE80AF80A209105023091C2
S1130B800602A0910302B091040207D4C616D70648
S1130B90E806F90638F3FFDDDF91CF911F910F913D
S1130BA0FF90EF90DF90CF9008951F920F920FB6B1
S1130BB00F9211248F939F93AF93BF9386E086BDCA
S1130BC08091300290913102A0913202B0913302AF
S1130BD00196A11DB11D8093300290933102A09320
S1130BE03202B0933302BF91AF919F918F910F90D6
S1130BF00FBE0F901F9018951F920F920FB60F9271
S1130C0011248F9381E0809324028F910F900FBE63
S1130C100F901F901895CF93DF93CDB7DEB72A9727
S1130C200FB6F894DEBF0FBECDBF789446D154D131
S1130C3072DD31DD2DD1BADD83E010DE80E090E09D
S1130C4072DF80912402882369F1809130029091AF
S1130C503102A0913202B091330240912B025091A3
S1130C602C0260912D0270912E028C019D01041BB7
S1130C70150B260B370BB901A8014D325140610504
S1130C80710580F030912F0221E0232720932F0259
S1130C9080932B0290932C02A0932D02B0932E02EA
S1130CA01092240280912F02882309F4DAC011E003
S1130CB010932A02F7DC0AD24B01B0902A02209149
S1130CC02902322F3127B322A09028021A25AB140F
S1130CD040F0A21688F0A1101AC0C12CD12C7601C4
S1130CE020C00F2EFBE1CF2EFFE2DF2EF1EAEF2E24
S1130CF0F0E4FF2EF02D15C00F2EF1E9CF2EFDEEFE
S1130D00DF2EF0EAEF2EF0E4FF2EF02D0AC00F2EB6
S1130D10F4E4CF2EFBE8DF2EF0EAEF2EF0E4FF2E12
S1130D20F02D80E090E0FED19B01AC01C701B6013B
S1130D30AFD220E030EC4FE754E460D16B017C018A
S1130D4081E0892809F480E01B2161F0882351F0B7
S1130D502AE037ED43E25CE3C701B601E7D06B015B
S1130D607C010BC0AA2049F02FE632E143E05CE3AA
S1130D70C701B601DAD06B017C0120E030E04AE71C
S1130D8054E4C701B60184D2A1D14B015C01AB018B
S1130D905695479556954795569547959A01A5ECCE
S1130DA0B0E2FBD2929582958F7089279F70892734
S1130DB068EE73E0869F9001879F300D969F300DFB
S1130DC01124821A930A9F928F929A01E6D29295E5
S1130DD082958F7089279F7089279F938F9387E0CF
S1130DE092E09F938F93CE0101969F938F93E4D2C9
S1130DF00FB6F894DEBF0FBECDBF20E030E040EC6C
S1130E005FE3C701B60140D2181624F481E0809351
S1130E1029020BC020E030E040EC5FE3C701B601DB
S1130E20E9D0882314F41092290220E030E040E64F
S1130E3050E4C701B60128D2882324F081E08093CE
S1130E4028020BC020E030E040E650E4C701B601C0
S1130E50D1D0882314F41092280288EE93E04ED067
S1130E60F0CE82E078DD44E150E062E370E080E1BE
S1130E7092E032DE42E350E062E370E08BE192E024
S1130E802BDE10922A021092290210922802D9CE47
S1130E9084B1876084B984B1877F84B985B1877F41
S1130EA085B98CE58CBD8DB581608DBD08958EBDF1
S1130EB00DB407FEFDCF8EB5089514BC85B58B7FA8
S1130EC085BD85B5836085BD86E086BDEEE6F0E030
S1130ED0808181608083089510928000E1E8F0E0D1
S1130EE08081897F808380818160808310928500E6
S1130EF01092840086B3826086BB089510C08EE38E
S1130F008093890080E88093880010928500109275
S1130F10840086B3826086BBB19BFECFC9019C016D
S1130F2021503109892B59F708955058BB27AA2716
S1130F300ED070C161D130F066D120F031F49F3F02
S1130F4011F41EF456C10EF4E095E7FB4CC1E92FF1
S1130F5072D180F3BA17620773078407950718F0F4
S1130F6071F49EF58AC10EF4E0950B2EBA2FA02DD4
S1130F700B01B90190010C01CA01A0011124FF2742
S1130F80591B99F0593F50F4503E68F11A16F0403D
S1130F90A22F232F342F4427585FF3CF469537953C
S1130FA02795A795F0405395C9F77EF41F16BA0B01
S1130FB0620B730B840BBAF09150A1F0FF0FBB1FAF
S1130FC0661F771F881FC2F70EC0BA0F621F731FF8
S1130FD0841F48F4879577956795B795F7959E3F55
S1130FE008F0B3CF9395880F08F09927EE0F9795E3
S1130FF087950895D4D008F481E008950CD00AC1EF
S113100002D140F0F9D030F021F45F3F19F0EBC089
S1131010511134C1EEC00FD198F39923C9F355236C
S1131020B1F3951B550BBB27AA27621773078407D7
S113103038F09F5F5F4F220F331F441FAA1FA9F38D
S113104033D00E2E3AF0E0E830D091505040E6957F
S1131050001CCAF729D0FE2F27D0660F771F881FE0
S1131060BB1F261737074807AB07B0E809F0BB0BCF
S1131070802DBF01FF2793585F4F2AF09E3F5105F3
S113108068F0B1C0FBC05F3FECF3983EDCF386959B
S113109077956795B795F7959F5FC9F7880F911D69
S11310A09695879597F90895E1E0660F771F881F55
S11310B0BB1F621773078407BA0720F0621B730B08
S11310C0840BBA0BEE1F88F7E0950895BCD088F026
S11310D09F5790F0B92F9927B751A0F0D1F0660F20
S11310E0771F881F991F1AF0BA95C9F712C0B1303B
S11310F081F0C3D0B1E00895C0C0672F782F88274E
S1131100B85F39F0B93FCCF3869577956795B39579
S1131110D9F73EF490958095709561957F4F8F4FE8
S11311209F4F0895E89409C097FB3EF490958095ED
S1131130709561957F4F8F4F9F4F9923A9F0F92F99
S113114096E9BB279395F695879577956795B79517
S1131150F111F8CFFAF4BB0F11F460FF1BC06F5FFD
S11311607F4F8F4F9F4F16C0882311F096E911C00F
S1131170772321F09EE8872F762F05C0662371F030
S113118096E8862F70E060E02AF09A95660F771F44
S1131190881FDAF7880F9695879597F90895990F20
S11311A00008550FAA0BE0E8FEEF16161706E8072D
S11311B0F907C0F012161306E407F50798F0621B4E
S11311C0730B840B950B39F40A2661F0232B242B23
S11311D0252B21F408950A2609F4A140A6958FEF42
S11311E0811D811D089597F99F6780E870E060E094
S11311F008959FEF80EC089500240A9416161706AC
S113120018060906089500240A94121613061406F3
S113121005060895092E0394000C11F4882352F056
S1131220BB0F40F4BF2B11F460FF04C06F5F7F4F0E
S11312308F4F9F4F089557FD9058440F551F59F0F5
S11312405F3F71F04795880F97FB991F61F09F3FAF
S113125079F087950895121613061406551FF2CFD8
S11312604695F1DF08C0161617061806991FF1CF28
S113127086957105610508940895E894BB2766274F
S11312807727CB0197F908958ADF08F48FEF089543
S11312900BD0C0CFB1DF28F0B6DF18F0952309F0EA
S11312A0A2CFA7CF1124EACFC6DFA0F3959FD1F335
S11312B0950F50E0551F629FF001729FBB27F00D00
S11312C0B11D639FAA27F00DB11DAA1F649F662755
S11312D0B00DA11D661F829F2227B00DA11D621FA4
S11312E0739FB00DA11D621F839FA00D611D221F5E
S11312F0749F3327A00D611D231F849F600D211D42
S1131300822F762F6A2F11249F5750408AF0E1F0E4
S113131088234AF0EE0FFF1FBB1F661F771F881F2D
S113132091505040A9F79E3F510570F05CCFA6CF75
S11313305F3FECF3983EDCF3869577956795B79518
S1131340F795E7959F5FC1F7FE2B880F911D969542
S1131350879597F90895A1E21A2EAA1BBB1BFD01DC
S11313600DC0AA1FBB1FEE1FFF1FA217B307E40780
S1131370F50720F0A21BB30BE40BF50B661F771FD8
S1131380881F991F1A9469F76095709580959095B8
S11313909B01AC01BD01CF010895A29FB001B39F91
S11313A0C001A39F700D811D1124911DB29F700D6A
S11313B0811D1124911D08950F931F93CF93DF93E3
S11313C0CDB7DEB72E970FB6F894DEBF0FBECDBFF4
S11313D00E891F8986E08C831A8309838FEF9FE728
S11313E09E838D83AE01465E5F4F688D798DCE01FD
S11313F0019610D0EF81F885E00FF11F10822E9630
S11314000FB6F894DEBF0FBECDBFDF91CF911F9111
S11314100F9108952F923F924F925F926F927F9215
S11314208F929F92AF92BF92CF92DF92EF92FF92F0
S11314300F931F93CF93DF93CDB7DEB72B970FB6E0
S1131440F894DEBF0FBECDBF6C017B018A01FC01A5
S113145017821682838181FFBFC1CE0101963C01B0
S1131460F6019381F70193FD859193FF81917F01AB
S1131470882309F4ADC1853239F493FD859193FF36
S113148081917F01853221F4B60190E0D6D1E8CF75
S1131490912C212C312CFFE1F315D8F08B3279F00B
S11314A038F4803279F08332A1F4232D20611DC0F9
S11314B08D3261F0803369F4232D216016C0832DB1
S11314C08260382EE32DE4603E2E2AC0F32DF860AE
S11314D01DC037FC2DC020ED280F2A3040F08E327D
S11314E0B9F436FC75C1232D2064322E19C036FEA2
S11314F006C08AE0989E200D1124922E11C0EAE0C5
S11315002E9E200D1124222EF32DF0623F2E08C0B2
S11315108C3621F4832D8068382E02C0883641F43D
S1131520F70193FD859193FF81917F018111B3CFE1
S1131530982F9F7D9554933028F40C5F1F4F9FE3A1
S113154099830DC0833631F0833771F0833509F008
S113155055C020C0F801808189830E5F1F4F882405
S11315608394912C530112C02801F2E04F0E511CB8
S1131570F801A080B18036FE03C0692D70E002C07E
S11315806FEF7FEFC5014ED14C018201F32DFF7740
S11315903F2E15C0280122E0420E511CF801A08004
S11315A0B18036FE03C0692D70E002C06FEF7FEF9B
S11315B0C5012DD14C01F32DF0683F2E820133FC7F
S11315C019C0822D90E088169906A0F4B60180E235
S11315D090E033D12A94F5CFF50137FC859137FE9D
S11315E081915F01B60190E028D121102A9421E075
S11315F0821A91088114910479F7E1C0843611F0BC
S1131600893639F5F80137FE07C06081718182811E
S113161093810C5F1F4F08C060817181072E000CFD
S1131620880B990B0E5F1F4FF32DFF763F2E97FF0C
S113163009C090958095709561957F4F8F4F9F4F0E
S1131640F0683F2E2AE030E0A30133D1882E8618BB
S113165044C0853731F4232D2F7EB22E2AE030E0AA
S113166025C0932D997FB92E8F36C1F018F4883593
S113167079F0AEC0803719F0883721F0A9C0E92F7E
S1131680E061BE2EB4FE0DC0FB2DF460BF2E09C078
S113169034FE0AC0292F2660B22E06C028E030E0AE
S11316A005C020E130E002C020E132E0F801B7FEDD
S11316B007C060817181828193810C5F1F4F06C0D6
S11316C06081718180E090E00E5F1F4FA301F1D033
S11316D0882E8618FB2DFF773F2E36FE0DC0232D56
S11316E02E7FA22E891458F434FE0BC032FC09C09C
S11316F0832D8E7EA82E05C0B82CA32C03C0B82C35
S113170001C0B92CA4FE0FC0FE01E80DF11D8081BB
S1131710803321F49A2D997EA92E09C0A2FE06C019
S1131720B394B39404C08A2D867809F0B394A3FCCF
S113173010C0A0FE06C0B21480F4280C922C9B1892
S11317400DC0B21458F4B60180E290E076D0B394A0
S1131750F8CFB21418F42B1802C0982C212CA4FE34
S11317600FC0B60180E390E068D0A2FE16C0A1FCD1
S113177003C088E790E002C088E590E0B6010CC0A1
S11317808A2D867851F0A1FE02C08BE201C080E26E
S1131790A7FC8DE2B60190E050D0891430F4B60174
S11317A080E390E04AD09A94F8CF8A94F301E80D4C
S11317B0F11D8081B60190E040D08110F6CF222047
S11317C009F44ECEB60180E290E037D02A94F7CFE8
S11317D0F6018681978102C08FEF9FEF2B960FB69B
S11317E0F894DEBF0FBECDBFDF91CF911F910F9153
S11317F0FF90EF90DF90CF90BF90AF909F908F902D
S11318007F906F905F904F903F902F900895FC01D0
S11318100590615070400110D8F7809590958E0F17
S11318209F1F0895FC016150704001900110D8F78A
S1131830809590958E0F9F1F08950F931F93CF93BC
S1131840DF93FB01238121FD03C08FEF9FEF2CC0A9
S113185022FF16C0468157812481358142175307E0
S113186044F4A081B1819D012F5F3F4F31832083D8
S11318708C93268137812F5F3F4F3783268314C093
S11318808B01EC01FB010084F185E02D1995892B76
S1131890E1F6D80116968D919C91179701961796AB
S11318A09C938E931697CE01DF91CF911F910F9148
S11318B00895FA01AA27283051F1203181F1E894E2
S11318C06F936E7F6E5F7F4F8F4F9F4FAF4FB1E02F
S11318D03ED0B4E03CD0670F781F891F9A1FA11D2A
S11318E0680F791F8A1F911DA11D6A0F711D811D2B
S11318F0911DA11D20D009F468943F912AE0269FF0
S113190011243019305D3193DEF6CF010895462F4E
S11319104770405D4193B3E00FD0C9F7F6CF462F2F
S11319204F70405D4A3318F0495D31FD4052419398
S113193002D0A9F7EACFB4E0A69597958795779555
S11319406795BA95C9F700976105710508959B01DC
S1131950AC010A2E06945795479537952795BA9565
S1131960C9F7620F731F841F951FA01D0895F89473
S1051970FFCFA3
S113197201FFFF4001F00025752E25303375560016
S113198253797374656D204F464600506F776572C4
S1071992204F4E0090
S9030000FC
