:1000000071C000008EC000008CC000008AC00000DB
:1000100088C00000F8C0000084C0000082C000005A
:1000200080C000007EC000007CC000007AC00000DC
:1000300078C0000076C0000074C0000072C00000EC
:1000400070C000006EC000006CC000006AC00000FC
:1000500068C0000066C0000064C0000072C00000FC
:1000600060C000005EC000005CC000005AC000001C
:1000700058C0000056C0000054C0000052C000002C
:1000800050C000004EC000004CC000004AC000003C
:1000900048C0000046C0000044C0000042C000004C
:1000A00040C000003EC000003CC000003AC000005C
:1000B00038C0000036C0000034C0000032C000006C
:1000C00030C000002EC000002CC000002AC000007C
:1000D00028C0000026C0000024C0000022C000008C
:1000E00020C0000011241FBECFEFD1E2DEBFCDBF84
:1000F00000E00CBF12E0A0E0B2E0E6E6F0E100E0D4
:100100000BBF02C007900D92A832B107D9F722E0C9
:10011000A8E2B2E001C01D92A533B207E1F7F1D029
:10012000A0C76ECF14BC85B58B7F85BD85B58360B8
:1001300085BD86E086BDEEE6F0E08081816080834B
:1001400008951F920F920FB60F9211248F939F93D1
:10015000AF93BF9386E086BD80912B0290912C02D5
:10016000A0912D02B0912E020196A11DB11D809388
:100170002B0290932C02A0932D02B0932E02BF91DC
:10018000AF919F918F910F900FBE0F901F90189578
:1001900010928000E1E8F0E08081897F8083808197
:1001A00081608083109285001092840086B3826003
:1001B00086BB089510C08EE38093890080E8809309
:1001C0008800109285001092840086B3826086BBFE
:1001D000B19BFECFC9019C0121503109892B59F7F0
:1001E00008958DB18F7E8DB98EB180618EB9EAE6AA
:1001F000F0E080818C7F80838081826080838DB3FA
:1002000080618DBB08951F920F920FB60F9211243B
:100210008F9381E0809333028F910F900FBE0F90E8
:100220001F90189587B1886387B988B1886388B9AA
:1002300088EE93E0BFDF98B188E3892788B90895F5
:1002400080E480937C0087E880937A0008958FEFA4
:1002500081B987B1836087B90895662321F098B189
:10026000916098B903C098B19E7F98B982B988B15E
:10027000826088B981E090E09DDF88B18D7F88B988
:1002800081E090E097CF089560E0E7CF089561E0C6
:10029000E4CF0895CF93DF931F921F92CDB7DEB7BF
:1002A000198290E49A83823008F081E0E1E0F0E086
:1002B000EC0FFD1FE80FF11D8081860F8068E4DFE1
:1002C0000F900F90DF91CF910895C1DF88E290E009
:1002D00071DF88E3D9DF8CE0D7DF86E0D5DF81E00E
:1002E000D3DF84E690E066CF0895CF93DF93EC01EF
:1002F00002C02196CCDF88818111FBCFDF91CF91A5
:100300000895CF93DF93CDB7DEB764970FB6F89417
:10031000DEBF0FBECDBF789405DF3ADFD6DF82DFC8
:1003200060DF8EDF80913302882389F180912B0278
:1003300090912C02A0912D02B0912E0240912F029B
:10034000509130026091310270913202841B950B02
:10035000A60BB70B8D329140A105B105C0F090916D
:10036000340281E089278093340280912B0290919E
:100370002C02A0912D02B0912E0280932F02909317
:100380003002A0933102B093320210923302809176
:100390003402882309F433C181E080932A0210E0FB
:1003A000C12CD12C76011DC0EAE7F0E08081806489
:1003B000808380917A0086FDFCCF20917800809127
:1003C000790090E0982F8827822B092E000CAA0B29
:1003D000BB0BC80ED91EEA1EFB1E81E090E0EADED0
:1003E0001F5F1A3008F3C701B6012AE030E040E091
:1003F00050E02BD369017A014901DF922F9380E00D
:1004000092E09F938F938E01055F1F4F1F930F9371
:100410004DD363E080E03EDFC80167DF00912A0230
:100420008091290211E0982F91270923B09028028A
:100430001B250F900F900F900F900F900F90B016FC
:1004400040F0B81688F0B1101AC0412C512C32017E
:1004500020C00F2EFBE14F2EFFE25F2EF1EA6F2E40
:10046000F0E47F2EF02D15C00F2EF1E94F2EFDEE9A
:100470005F2EF0EA6F2EF0E47F2EF02D0AC00F2ED3
:10048000F4E44F2EFBE85F2EF0EA6F2EF0E47F2EAF
:10049000F02DB60180E090E0BFD19B01AC01C3011B
:1004A000B20170D220E030EC4FE754E421D16B016F
:1004B0007C0181E0892809F480E0102361F0882321
:1004C00051F02AE037ED43E25CE3C701B601A8D062
:1004D0006B017C010BC0BB2049F02FE632E143E009
:1004E0005CE3C701B6019BD06B017C0120E030E0EA
:1004F0004AE754E4C701B60145D262D12B013C0161
:10050000AB015695479556954795569547959A014F
:10051000A5ECB0E2BCD2929582958F7089279F702E
:10052000892768EE73E0869F9001879F300D969F24
:10053000300D1124421A530A5F924F929A01A7D2AA
:10054000929582958F7089279F7089279F938F93AB
:1005500084E092E09F938F938E010F5F1F4F1F9354
:100560000F93A4D260E081E095DEC801BEDE88B1C1
:10057000806288B90FB6F894DEBF0FBECDBF20E011
:1005800030E040EC5FE3C701B601F8D118163CF447
:1005900088B1886088B981E0809329020EC020E08C
:1005A00030E040EC5FE3C701B6019ED088232CF415
:1005B00088B1877F88B91092290220E030E040E6B8
:1005C00050E4C701B601DAD188233CF088B18061DC
:1005D00088B981E0809328020EC020E030E040E638
:1005E00050E4C701B60180D088232CF488B18F7EF7
:1005F00088B91092280288EE93E0DCDD93CE109249
:100600002A02109229021092280288B1877C88B9A8
:1006100060E081E03FDE86E192E067DE83CE505805
:10062000BB27AA270ED070C161D130F066D120F06F
:1006300031F49F3F11F41EF456C10EF4E095E7FB30
:100640004CC1E92F72D180F3BA1762077307840790
:10065000950718F071F49EF58AC10EF4E0950B2E03
:10066000BA2FA02D0B01B90190010C01CA01A00104
:100670001124FF27591B99F0593F50F4503E68F15F
:100680001A16F040A22F232F342F4427585FF3CFA0
:10069000469537952795A795F0405395C9F77EF471
:1006A0001F16BA0B620B730B840BBAF09150A1F0BA
:1006B000FF0FBB1F661F771F881FC2F70EC0BA0F40
:1006C000621F731F841F48F4879577956795B795C8
:1006D000F7959E3F08F0B3CF9395880F08F09927C0
:1006E000EE0F979587950895D4D008F481E008958A
:1006F0000CD00AC102D140F0F9D030F021F45F3FB4
:1007000019F0EBC0511134C1EEC00FD198F3992309
:10071000C9F35523B1F3951B550BBB27AA276217C5
:100720007307840738F09F5F5F4F220F331F441F0A
:10073000AA1FA9F333D00E2E3AF0E0E830D0915042
:100740005040E695001CCAF729D0FE2F27D0660F2F
:10075000771F881FBB1F261737074807AB07B0E86E
:1007600009F0BB0B802DBF01FF2793585F4F2AF084
:100770009E3F510568F0B1C0FBC05F3FECF3983E6F
:10078000DCF3869577956795B795F7959F5FC9F7E1
:10079000880F911D9695879597F90895E1E0660F6A
:1007A000771F881FBB1F621773078407BA0720F0E3
:1007B000621B730B840BBA0BEE1F88F7E09508954C
:1007C000BCD088F09F5790F0B92F9927B751A0F06F
:1007D000D1F0660F771F881F991F1AF0BA95C9F7D5
:1007E00012C0B13081F0C3D0B1E00895C0C0672F0E
:1007F000782F8827B85F39F0B93FCCF38695779585
:100800006795B395D9F73EF490958095709561956D
:100810007F4F8F4F9F4F0895E89409C097FB3EF498
:1008200090958095709561957F4F8F4F9F4F99233D
:10083000A9F0F92F96E9BB279395F69587957795BB
:100840006795B795F111F8CFFAF4BB0F11F460FF7B
:100850001BC06F5F7F4F8F4F9F4F16C0882311F0D3
:1008600096E911C0772321F09EE8872F762F05C0E7
:10087000662371F096E8862F70E060E02AF09A9582
:10088000660F771F881FDAF7880F9695879597F977
:100890000895990F0008550FAA0BE0E8FEEF161611
:1008A0001706E807F907C0F012161306E407F50764
:1008B00098F0621B730B840B950B39F40A2661F0D8
:1008C000232B242B252B21F408950A2609F4A1407B
:1008D000A6958FEF811D811D089597F99F6780E888
:1008E00070E060E008959FEF80EC089500240A9482
:1008F0001616170618060906089500240A941216FB
:100900001306140605060895092E0394000C11F42D
:10091000882352F0BB0F40F4BF2B11F460FF04C0DA
:100920006F5F7F4F8F4F9F4F089557FD9058440F33
:10093000551F59F05F3F71F04795880F97FB991F3E
:1009400061F09F3F79F087950895121613061406FB
:10095000551FF2CF4695F1DF08C016161706180688
:10096000991FF1CF86957105610508940895E89463
:10097000BB2766277727CB0197F908958ADF08F40C
:100980008FEF08950BD0C0CFB1DF28F0B6DF18F09D
:10099000952309F0A2CFA7CF1124EACFC6DFA0F399
:1009A000959FD1F3950F50E0551F629FF001729F04
:1009B000BB27F00DB11D639FAA27F00DB11DAA1F23
:1009C000649F6627B00DA11D661F829F2227B00D70
:1009D000A11D621F739FB00DA11D621F839FA00DFB
:1009E000611D221F749F3327A00D611D231F849F4B
:1009F000600D211D822F762F6A2F11249F575040A2
:100A00008AF0E1F088234AF0EE0FFF1FBB1F661F3C
:100A1000771F881F91505040A9F79E3F510570F0F5
:100A20005CCFA6CF5F3FECF3983EDCF386957795DD
:100A30006795B795F795E7959F5FC1F7FE2B880FF0
:100A4000911D9695879597F90895A1E21A2EAA1BF4
:100A5000BB1BFD010DC0AA1FBB1FEE1FFF1FA2176E
:100A6000B307E407F50720F0A21BB30BE40BF50B6B
:100A7000661F771F881F991F1A9469F760957095F4
:100A8000809590959B01AC01BD01CF010895A29F77
:100A9000B001B39FC001A39F700D811D1124911D52
:100AA000B29F700D811D1124911D08950F931F9306
:100AB000CF93DF93CDB7DEB72E970FB6F894DEBF96
:100AC0000FBECDBF0E891F8986E08C831A830983F0
:100AD0008FEF9FE79E838D83AE01465E5F4F688DEB
:100AE000798DCE01019610D0EF81F885E00FF11FCE
:100AF00010822E960FB6F894DEBF0FBECDBFDF91E9
:100B0000CF911F910F9108952F923F924F925F9234
:100B10006F927F928F929F92AF92BF92CF92DF920D
:100B2000EF92FF920F931F93CF93DF93CDB7DEB772
:100B30002B970FB6F894DEBF0FBECDBF6C017B01C3
:100B40008A01FC0117821682838181FFBFC1CE0119
:100B500001963C01F6019381F70193FD859193FF86
:100B600081917F01882309F4ADC1853239F493FD69
:100B7000859193FF81917F01853221F4B60190E048
:100B8000D6D1E8CF912C212C312CFFE1F315D8F0F0
:100B90008B3279F038F4803279F08332A1F4232D4E
:100BA00020611DC08D3261F0803369F4232D2160F6
:100BB00016C0832D8260382EE32DE4603E2E2AC0BD
:100BC000F32DF8601DC037FC2DC020ED280F2A3012
:100BD00040F08E32B9F436FC75C1232D2064322EDC
:100BE00019C036FE06C08AE0989E200D1124922E70
:100BF00011C0EAE02E9E200D1124222EF32DF0626A
:100C00003F2E08C08C3621F4832D8068382E02C018
:100C1000883641F4F70193FD859193FF81917F011F
:100C20008111B3CF982F9F7D9554933028F40C5F9A
:100C30001F4F9FE399830DC0833631F0833771F0E6
:100C4000833509F055C020C0F801808189830E5F8B
:100C50001F4F88248394912C530112C02801F2E085
:100C60004F0E511CF801A080B18036FE03C0692DE3
:100C700070E002C06FEF7FEFC5014ED14C018201E1
:100C8000F32DFF773F2E15C0280122E0420E511CA4
:100C9000F801A080B18036FE03C0692D70E002C06B
:100CA0006FEF7FEFC5012DD14C01F32DF0683F2E82
:100CB000820133FC19C0822D90E088169906A0F4B9
:100CC000B60180E290E033D12A94F5CFF50137FCEC
:100CD000859137FE81915F01B60190E028D1211006
:100CE0002A9421E0821A91088114910479F7E1C0D5
:100CF000843611F0893639F5F80137FE07C0608176
:100D00007181828193810C5F1F4F08C06081718166
:100D1000072E000C880B990B0E5F1F4FF32DFF76EB
:100D20003F2E97FF09C090958095709561957F4FF4
:100D30008F4F9F4FF0683F2E2AE030E0A30133D160
:100D4000882E861844C0853731F4232D2F7EB22E8D
:100D50002AE030E025C0932D997FB92E8F36C1F05F
:100D600018F4883579F0AEC0803719F0883721F053
:100D7000A9C0E92FE061BE2EB4FE0DC0FB2DF460CA
:100D8000BF2E09C034FE0AC0292F2660B22E06C02D
:100D900028E030E005C020E130E002C020E132E090
:100DA000F801B7FE07C060817181828193810C5F79
:100DB0001F4F06C06081718180E090E00E5F1F4F81
:100DC000A301F1D0882E8618FB2DFF773F2E36FE2B
:100DD0000DC0232D2E7FA22E891458F434FE0BC093
:100DE00032FC09C0832D8E7EA82E05C0B82CA32C02
:100DF00003C0B82C01C0B92CA4FE0FC0FE01E80D41
:100E0000F11D8081803321F49A2D997EA92E09C08D
:100E1000A2FE06C0B394B39404C08A2D867809F06C
:100E2000B394A3FC10C0A0FE06C0B21480F4280C3A
:100E3000922C9B180DC0B21458F4B60180E290E0D9
:100E400076D0B394F8CFB21418F42B1802C0982CB3
:100E5000212CA4FE0FC0B60180E390E068D0A2FE72
:100E600016C0A1FC03C088E790E002C088E590E0CE
:100E7000B6010CC08A2D867851F0A1FE02C08BE22B
:100E800001C080E2A7FC8DE2B60190E050D0891449
:100E900030F4B60180E390E04AD09A94F8CF8A9477
:100EA000F301E80DF11D8081B60190E040D0811082
:100EB000F6CF222009F44ECEB60180E290E037D082
:100EC0002A94F7CFF6018681978102C08FEF9FEFBA
:100ED0002B960FB6F894DEBF0FBECDBFDF91CF913A
:100EE0001F910F91FF90EF90DF90CF90BF90AF9048
:100EF0009F908F907F906F905F904F903F902F903A
:100F00000895FC010590615070400110D8F780955C
:100F100090958E0F9F1F0895FC01615070400190C5
:100F20000110D8F7809590958E0F9F1F08950F930D
:100F30001F93CF93DF93FB01238121FD03C08FEF2C
:100F40009FEF2CC022FF16C0468157812481358136
:100F50004217530744F4A081B1819D012F5F3F4F99
:100F6000318320838C93268137812F5F3F4F3783D6
:100F7000268314C08B01EC01FB010084F185E02D78
:100F80001995892BE1F6D80116968D919C911797AA
:100F9000019617969C938E931697CE01DF91CF9171
:100FA0001F910F910895FA01AA27283051F120319D
:100FB00081F1E8946F936E7F6E5F7F4F8F4F9F4FED
:100FC000AF4FB1E03ED0B4E03CD0670F781F891F2F
:100FD0009A1FA11D680F791F8A1F911DA11D6A0FFD
:100FE000711D811D911DA11D20D009F468943F91B0
:100FF0002AE0269F11243019305D3193DEF6CF01AF
:101000000895462F4770405D4193B3E00FD0C9F774
:10101000F6CF462F4F70405D4A3318F0495D31FDE1
:101020004052419302D0A9F7EACFB4E0A695979534
:10103000879577956795BA95C9F70097610571050A
:1010400008959B01AC010A2E069457954795379554
:101050002795BA95C9F7620F731F841F951FA01DAE
:061060000895F894FFCF93
:1010660025752000202020202025752E253033755B
:1010760056202020200020202053797374656D208F
:081086004F4646202020000027
:00000001FF
