S0150000456D5379735F50726F6A6563742E73726563E8
S113000029C3000047C3000045C3000043C30000E8
S113001041C300000C9462093DC300003BC30000CF
S113002039C3000037C3000035C3000033C30000E8
S113003031C300002FC300002DC300002BC30000F8
S113004029C3000027C3000025C3000023C3000008
S113005021C300001FC300001DC300000C943B0912
S113006019C3000017C3000015C3000013C3000028
S113007011C300000FC300000DC300000BC3000038
S113008009C3000007C3000005C3000003C3000048
S113009001C30000FFC20000FDC20000FBC200005B
S11300A0F9C20000F7C20000F5C20000F3C200006C
S11300B0F1C20000EFC20000EDC20000EBC200007C
S11300C0E9C20000E7C20000E5C20000E3C200008C
S11300D0E1C20000DFC20000DDC20000DBC200009C
S11300E0D9C20000EF03038002CF0300C130ED0446
S11300F064031281E803850078CB05392C003402AF
S1130100F70120EA020000C00123C10110C5023E2C
S113011028C701863601483701003A0155B102006B
S113012018B603088227F20100260101E00F0F31FF
S11301302B0C0E084EF1370710030E0900E10F00D7
S11301400E1403110731C148080F0C31360F11800A
S113015029800000000000003E5B4F5B3E3E6B4F79
S11301606B3E1C3E7C3E1C183C7E3C181C577D5745
S11301701C1C5E7F5E1C00183C1800FFE7C3E7FFF1
S11301800018241800FFE7DBE7FF30483A060E2684
S113019029792926407F050507407F05253F5A3CDC
S11301A0E73C5A7F3E1C1C08081C1C3E7F14227F1F
S11301B022145F5F005F5F06097F017F00668995F7
S11301C06A606060606094A2FFA29408047E0408E0
S11301D010207E201008082A1C08081C2A08081E63
S11301E0101010100C1E0C1E0C30383E3830060E49
S11301F03E0E06000000000000005F000000070043
S11302000700147F147F14242A7F2A1223130864FE
S11302106236495620500008070300001C224100A2
S11302200041221C002A1C7F1C2A08083E080800E2
S11302308070300008080808080000606000201082
S11302400804023E5149453E00427F40007249493C
S113025049462141494D331814127F10274545451D
S1130260393C4A494931412111090736494949363E
S1130270464949291E0000140000004034000000D3
S11302800814224114141414140041221408020105
S11302905909063E415D594E7C1211127C7F494931
S11302A049363E414141227F4141413E7F494949CE
S11302B0417F090909013E414151737F0808087FC4
S11302C000417F41002040413F017F081422417FCB
S11302D0404040407F021C027F7F0408107F3E4163
S11302E041413E7F090909063E4151215E7F0919BA
S11302F02946264949493203017F01033F404040D2
S11303003F1F2040201F3F4038403F6314081463C0
S113031003047804036159494D43007F414141027C
S113032004081020004141417F04020102044040BE
S1130330404040000307080020545478407F28447C
S113034044383844444428384444287F3854545466
S11303501800087E090218A4A49C787F0804047875
S113036000447D40002040403D007F1028440000B0
S1130370417F40007C047804787C08040478384485
S1130380444438FC1824241818242418FC7C080439
S11303900408485454542404043F44243C4040205A
S11303A07C1C2040201C3C4030403C442810284405
S11303B04C9090907C4464544C44000836410000B6
S11303C000770000004136080002010204023C26C6
S11303D023263C1EA1A161123A4040207A3854548D
S11303E05559215555794122545478422155547810
S11303F04020545579400C1E5272123955555559A6
S1130400395454545939555454580000457C4100CA
S113041002457D420001457C407D1211127DF02889
S11304202528F07C545545002054547C547C0A09FA
S11304307F4932494949323A4444443A324A484865
S1130440303A4141217A3A42402078009DA0A07D73
S11304503D4242423D3D4040403D3C24FF2424482F
S11304607E4943662B2FFC2F2BFF0929F620C088D9
S11304707E090320545479410000447D41304848AA
S11304804A32384040227A007A0A0A727D0D1931C4
S11304907D2629292F28262929292630484D402020
S11304A0380808080808080808382F10C8ACBA2FFC
S11304B0102834FA00007B000008142A14222214A5
S11304C02A14085500550055AA55AA55AAFF55FFE8
S11304D055FF000000FF00101010FF00141414FF5B
S11304E0001010FF00FF1010F010F0141414FC00A2
S11304F01414F700FF0000FF00FF1414F404FC14AC
S11305001417101F10101F101F1414141F001010A4
S113051010F0000000001F101010101F1010101019
S1130520F010000000FF101010101010101010FF39
S113053010000000FF140000FF00FF00001F101750
S11305400000FC04F414141710171414F404F40039
S113055000FF00F714141414141414F700F71414FF
S113056014171410101F101F141414F4141010F086
S113057010F000001F101F0000001F14000000FCFA
S1130580140000F010F01010FF10FF141414FF14E6
S11305901010101F00000000F010FFFFFFFFFFF01D
S11305A0F0F0F0F0FFFFFF0000000000FFFF0F0F6E
S11305B00F0F0F3844443844FC4A4A4A347E02023E
S11305C00606027E027E0263554941633844443C78
S11305D004407E201E2006027E020299A5E7A5990A
S11305E01C2A492A1C4C7201724C304A4D4D303041
S11305F048784830BC625A463D3E494949007E012C
S113060001017E2A2A2A2A2A44445F444440514A4A
S1130610444040444A51400000FF0103E080FF0091
S11306200008086B6B083612362436060F090F06CD
S1130630000018180000001010003040FF010100F5
S11306401F01011E00191D1712003C3C3C3C000018
S11306500000000011241FBECFEFD1E2DEBFCDBFEA
S113066000E00CBF12E0A0E0B2E0E6E8F3E200E054
S11306700BBF02C007900D92A839B107D9F723E048
S1130680A8E9B2E001C01D92A037B207E1F740D655
S11306900C94C111B5CC80E480937C0087E88093EE
S11306A07A000895CF92DF92EF92FF92CF93CAE03F
S11306B0C12CD12C760180917A00806480937A00D9
S11306C080917A0086FDFCCF80917800209179009A
S11306D090E0922B092E000CAA0BBB0BC80ED91E5E
S11306E0EA1EFB1E81E090E00E94750CC15019F7D0
S11306F0C701B6012AE030E040E050E00E94B50EA8
S1130700CA01B9010E94880D2DE33AE04FE950E493
S11307100E943E0E20E030EC4FE754E40E94EF0CC0
S1130720CF91FF90EF90DF90CF9008956C98749ADA
S1130730EAE6F0E080818C7F808380818260808320
S1130740EC9A08952E982C9890E00E94500C2E9AC2
S113075008952E982C9A90E00E94500C2E9A089599
S11307602C982E9808952C9A2E9808952E9A86E007
S11307708A95F1F700C00895CF92DF92FF920F930C
S11307801F93CF93DF9384B1806784B92E9A2C9AF8
S11307902D9A2D9887E893E10197F1F700C00000A6
S11307A02D9AEBE7F2E93197F1F700C0000004EE6F
S11307B010E0C8010196F801F490FF2061F10E5F8A
S11307C01F4FFC01D491CD2FCF77CADF8F2D90E03E
S11307D00E94500CCBDFCC23A9F0C5DF6801F12CBB
S11307E0F601849190E00E94500CF394FFEFCF1A2D
S11307F0DF0ACF11F5CFC1508C2F90E00196080F7E
S1130800191FB4DFD7FFD5CF8BE792E90197F1F732
S113081000C00000CECFDF91CF911F910F91FF90C8
S1130820DF90CF900895CF938370809399028230A4
S113083001F1833061F1813071F080EF90E09093A9
S113084006028093050280E491E090930402809371
S11308500302C8E429C080E491E0909306028093E7
S1130860050280EF90E09093040280930302C8E2B3
S11308701BC080EF90E0909306028093050280E411
S113088091E09093040280930302C8E80DC080E4D1
S113089091E0909306028093050280EF90E090939C
S11308A0040280930302C8EE86E34CDF8C2FCF91C1
S11308B050CFCF92DF92EF92FF920F931F93CF937B
S11308C0DF936C017B01415051098A01080F191F04
S11308D0E9012197C60FD71F8AE234DF8D2D39DF56
S11308E08C2D37DF812F35DF802F33DF8BE22ADF3A
S11308F08F2D2FDF8E2D2DDF8D2F2BDF8C2F29DFDA
S11309008CE2DF91CF911F910F91FF90EF90DF90D8
S1130910CF9018CF811101C081E080930002089527
S1130920909302028093010208958F929F92AF9256
S1130930BF92CF92DF92EF92FF920F931F93CF93C8
S11309406A017901C12FB5DF8CE2FCDE0CDF960170
S1130950D7010E94D70E4B015C01C12CD12C76012A
S11309601127C814D904EA04FB0459F08C2F90E031
S113097097D7C80195D78FEFC81AD80AE80AF80A9A
S1130980F0CFCF911F910F91FF90EF90DF90CF9018
S1130990BF90AF909F908F90E9CE6F927F928F928D
S11309A09F92AF92BF92CF92DF92EF92FF920F93FA
S11309B01F93CF93DF9390EE980F903608F061C0A9
S11309C04A015B0195E0899F30011124E12CF12C4F
S11309D0F301EE0DFF1DED5AFE4FE491C12CD12C15
S11309E0CE2FD0E0CE010C2C02C0959587950A94A9
S11309F0E2F780FF05C0009101021091020204C0D9
S1130A0000919A0210919B024091000250E0C49E12
S1130A10B001C59E700DD49E700D1124680D791D12
S1130A20E49EC001E59E900DF49E900D11249A0160
S1130A308A0D9B1D7ADFAFEFCA1ADA0AE8E0CE16F8
S1130A40D10481F6FFEFEF1AFF0A85E0E816F104FE
S1130A5009F0BECF8091000200919A0210919B028E
S1130A60482F50E09A0193E0220F331F9A95E1F743
S1130A70B401F501A5E08A9FE00DF11D1124CF0119
S1130A8054DFDF91CF911F910F91FF90EF90DF9092
S1130A90CF90BF90AF909F908F907F906F9008956C
S1130AA0EF92FF920F931F93CF93DF93EB017A01A1
S1130AB08C01F80181918F01882359F0A701BE01AF
S1130AC06CDF8091000296E0899FC00DD11D112436
S1130AD0F0CFDF91CF911F910F91FF90EF90089588
S1130AE0CF92DF92EF92FF921F93CF93DF93EC01AB
S1130AF01D2F209103023091040240910502509170
S1130B00060260E070E080E090E0D3DE8CE21ADE62
S1130B102ADEC12CD12C7601DD27209105023091EB
S1130B200602A0910302B09104020E94D70EC616D9
S1130B30D706E806F90658F4812F90E0B1D6CE0125
S1130B40AFD68FEFC81AD80AE80AF80AE6CFDF91C1
S1130B50CF911F91FF90EF90DF90CF9007CE0F932E
S1130B601F938A0121E030E041E050E0DEDE1F9176
S1130B700F9108952F923F924F925F926F927F92BE
S1130B808F929F92AF92BF92CF92DF92EF92FF9299
S1130B900F931F93CF93DF9300D000D0CDB7DEB770
S1130BA07C017E836D835A01390128018A01081B67
S1130BB0190B17FF03C011950195110963012D81CC
S1130BC03E81C21AD30AD7FE03C0D194C194D1087E
S1130BD0882799278C199D099C838B83EA14FB042D
S1130BE024F022242A94322C03C022242394312C6E
S1130BF02D813E81261537052CF08FEF9FEF9A83C8
S1130C00898304C021E030E03A83298348018C18A9
S1130C109D08A2016D817E81C701A1DFEA14FB0456
S1130C2029F48D819E8186159705D1F0C401880F22
S1130C30991F2B813C81821793073CF08C189D08E7
S1130C40E20CF31C0817190724F3800E911E8D8102
S1130C509E8129813A81820F931F9E838D83D9CFF0
S1130C6026960FB6F894DEBF0FBECDBFDF91CF91AD
S1130C701F910F91FF90EF90DF90CF90BF90AF90B6
S1130C809F908F907F906F905F904F903F902F90A8
S1130C9008958F929F92AF92BF92CF92DF92EF927C
S1130CA0FF920F931F93CF93DF934B015C01690174
S1130CB0D42FC52F90D687FF03C04601AD2EBC2E7E
S1130CC09701A801B401C501D5D7181614F447013A
S1130CD0580196014D2F5C2FB401C50117D64B0165
S1130CE05C0196014D2F5C2FB701C8010FD69B0103
S1130CF0AC01C501B40173D620E030E04CE053E40C
S1130D00BDD7DAD62FEC30E0C901861B970BDF91F3
S1130D10CF911F910F91FF90EF90DF90CF90BF90F4
S1130D20AF909F908F9008952F923F924F925F9231
S1130D306F927F928F929F92AF92BF92CF92DF92E7
S1130D40EF92FF920F931F93CF93DF93CDB7DEB74C
S1130D502C970FB6F894DEBF0FBECDBF6C017A831B
S1130D60698329013A014701580100E010E021E9B3
S1130D7030E045EF50E062E470E083E190E0D5DDDF
S1130D8089819A81181619060CF0A1C04A9724F09B
S1130D90E9E1F0E0FA83E98389819A8190939D02E5
S1130DA080939C02CD82DE82A8EAB2E0B887AF834A
S1130DB0212C312C84E1C82ED12C80919C0290915D
S1130DC09D02281639060CF082C0AD81BE818D913A
S1130DD09D910D90BC91A02D89839A83AB83BC8394
S1130DE083017201A5019401BC01CD0152DF9C87EE
S1130DF08B87EF81F885D182C08293838283898136
S1130E009A81AB81BC8184839583A683B78300EEEA
S1130E1017E02B853C85A6016FEC70E0C601AADEC5
S1130E2080919C0290919D02019728163906BCF48A
S1130E30AD81BE8114966D917D918D919C91179792
S1130E4083017201A501940124DF00EE17E09C01E7
S1130E50A601465F5F4F6B857C85C6018BDEEB8503
S1130E60FC853196FA83E983C60101969A878987BE
S1130E70AB85BC851197BC87AB877601B1E0EB1AD3
S1130E80F1080FE110E09F01AC016B857C85C7017F
S1130E9071DE2B853C8549855A8569817A81C70134
S1130EA069DEEAE0CE0ED11C8D819E8104969E837C
S1130EB08D83AF81B8851896B887AF83BEE0CB1613
S1130EC0B1E0DB0621F0EFEF2E1A3E0A76CF2C9626
S1130ED00FB6F894DEBF0FBECDBFDF91CF911F9147
S1130EE00F91FF90EF90DF90CF90BF90AF909F90C5
S1130EF08F907F906F905F904F903F902F900895C8
S1130F002F923F924F925F926F927F928F929F9215
S1130F10AF92BF92CF92DF92EF92FF920F931F9303
S1130F20CF93DF93CDB7DEB760970FB6F894DEBFEB
S1130F300FBECDBF9E878D877A83698329013A01CD
S1130F404701580100E010E021E930E045EF50E0AE
S1130F5062E470E083E190E0E8DC29813A812230A8
S1130F6031050CF404C12A31310524F089E190E003
S1130F709A838983A981BA81B0939D02A0939C022C
S1130F802D843E84E8EAF2E0FA83E98321E030E04C
S1130F903A87298764E1C62ED12C80919C029091D6
S1130FA09D0249855A85481759070CF079C0A60156
S1130FB0465F5F4F5C874B87D1018D919D910D906A
S1130FC0BC91A02D8D839E83AF83B887830172016A
S1130FD0A5019401BC01CD015CDE988B8F87F101E2
S1130FE06481758186819781A501940152DEA9816E
S1130FF0BA811196DC92CE92EF85F8891396FC9310
S1131000EE9312972D813E814F81588514962D932E
S11310103D934D935C93179700EE17E09C014B852D
S11310205C85BF01C601A6DDEF85F8893196FE8394
S1131030ED837601FFEFEF1AFF0A2F8538892150DF
S11310403109388B2F8731E0C31AD1080FE110E042
S11310502D813E81A7016F857889C6018BDD2F859F
S11310603889A7016D817E81C60184DD44E0240EA8
S1131070311C89819A8108969A838983AB85BC85C2
S1131080AE30E1E0BE0741F029853A852F5F3F4F3E
S11310903A8729876D0181CF5EE0C52EDD24D39484
S11310A080919C0290919D02823091050CF45FC066
S11310B0DC0123E0AA0FBB1F2A95E1F7A056BD4F20
S11310C0BE83AD83CD92DC92FC01E150F04CEE0F77
S11310D0FF1FEE0FFF1F2D853E85E20FF31F80815A
S11310E09181A281B38189839A83AB83BC83830179
S11310F07201A5019401BC01CD01CBDDAD81BE819E
S113110013969C938E93129729813A814B815C812B
S113111014962D933D934D935C931797F601319656
S1131120FA83E983F1E0CF1AD1089C012F5F3F4F86
S1131130BC01615071090FE110E049815A81C60177
S113114019DDE0919C02F0919D0243E0EE0FFF1F38
S11311504A95E1F7E056FD4F628173819B0121506E
S113116031096F5F7F4F49815A81C60103DD609663
S11311700FB6F894DEBF0FBECDBFDF91CF911F91A4
S11311800F91FF90EF90DF90CF90BF90AF909F9022
S11311908F907F906F905F904F903F902F90089525
S11311A08F929F92AF92BF92CF92DF92EF92FF9273
S11311B00F931F93CF93DF9322E0209300029B01B0
S11311C0AC01A5D374D48B016B30710514F00AE023
S11311D010E0C8ECD0E0812C912CE12C88EFF82EA3
S11311E090E2C92E9DEFD92E20EEA22E27E0B22E3A
S11311F086E0881691042CF4B0920202A0920102B7
S11312000DC089E08816910429F0D0920202C092A0
S1131210010204C0F0920202E092010245E050E0B3
S1131220BE01801691064CF489E092E039DC4FE06F
S113123050E0BE0189E092E008C08BE092E030DC2F
S11312404FE050E0BE018BE092E02ADC8FEF881A79
S1131250980A2C968AE08816910451F6DF91CF9172
S11312601F910F91FF90EF90DF90CF90BF90AF90C0
S11312709F908F9008951F920F920FB60F92112492
S11312808F939F93AF93BF9386E086BD8091A40212
S11312909091A502A091A602B091A7020196A11D6A
S11312A0B11D8093A4029093A502A093A602B093CB
S11312B0A702BF91AF919F918F910F900FBE0F9096
S11312C01F9018951F920F920FB60F9211248F93AF
S11312D081E0809398028F910F900FBE0F901F9022
S11312E018950F931F93FC01805A9F4F0481158119
S11312F0268137810193119321933193E817F907DC
S1131300A9F740835183628373831F910F910895DA
S1131310CF93DF93CDB7DEB7CA5BD1090FB6F8948C
S1131320DEBF0FBECDBF7894C1D2CFD2FFD9B3D91F
S1131330ACD222DA83E077DA80E090E0D1DBFE0100
S1131340319684E6DF011D928A95E9F7812C912C70
S1131350EC55FF4FC155DF4FF983E883CF5AD04096
S11313608E010B571F4FCF54DF4F19830883C15B86
S1131370D0409E012B593F4FCD54DF4F39832883F2
S1131380C35BD04080919802882381F14091A402EC
S11313905091A5026091A6027091A70280919F02CC
S11313A09091A002A091A102B091A2028A019B0196
S11313B0081B190B2A0B3B0BD901C8018D32914034
S11313C0A105B10598F08091A30221E082278093C2
S11313D0A30240939F025093A0026093A1027093D2
S11313E0A20280E090E07CDB109298028091A3023C
S11313F0882309F428C282E08DDA8FE190E090DA44
S113140080919E02811107C04AE050E062E070E0E2
S11314108DE092E00DC040E050E062E070E08DE0CD
S113142092E03EDB4FE050E062E070E086E192E063
S113143037DB80EE97E074DA4AE050E06CEB70E062
S113144089E092E02DDB40910502509106020FEFF6
S11314501FEF23E230E063E270E080E090E08ADB9B
S113146020E030E048EB50E063E270E088EB90E08D
S113147081DB29ED30E048E151E069E370E088E187
S113148091E078DB29E330E044E551E069E370E082
S113149088E191E06FDB409105025091060221E65C
S11314A030E061E670E088E191E064DB40910502A0
S11314B05091060229E830E069E870E088E191E0A3
S11314C059DB409105025091060221EB30E061EBBB
S11314D070E088E191E04EDB4091050250910602F4
S11314E029ED30E069ED70E088E191E043DB81E0D3
S11314F011DA80EE97E014DA48E450E06DE171E02F
S11315008EE192E0CDDA40E750E062E271E085E2FC
S113151092E0C6DA48E950E062E271E08AE292E0E1
S1131520BFDA40EC50E06BE171E08FE292E0B8DAB0
S1131530B9D82B013C0139E1831691049CF4F401E0
S1131540EE0FFF1FEE0FFF1F81E090E08C0F9D1F39
S1131550E80FF91F40825182628273829FEF891AD9
S1131560990A05C0AB01BC01CE010196BADEA9807F
S1131570BA80AB81CB54DF4FA883C55BD040BC811C
S1131580CA54DF4FB883C65BD0408E010F5F1F4F34
S1131590C754DF4F19830883C95BD040C954DF4F58
S11315A0A882C75BD040C854DF4FB882C85BD04024
S11315B03A2E2B2E00E010E0C754DF4FA881B981EA
S11315C0C95BD040CD90DD90ED90FD90C754DF4FC6
S11315D0B983A883C95BD040C954DF4F2881C75B56
S11315E0D040C854DF4F3881C85BD040432D522DC2
S11315F0C701B601F0D187FF0CC0C954DF4FC882C0
S1131600C75BD040C854DF4FD882C85BD0403E2C63
S11316102F2C9501CB54DF4F4881C55BD040CA5471
S1131620DF4F5881C65BD040C701B60123D31816DB
S11316305CF45601CB54DF4FE882C55BD040CA54FA
S1131640DF4FF882C65BD0400F5F1F4F80169106B4
S113165009F0B2CF80910802882319F18091070222
S1131660C954DF4FE880C75BD040C854DF4FF880CF
S1131670C85BD040032D122D9501CB54DF4F488118
S1131680C55BD040CA54DF4F5881C65BD040B4011B
S1131690882321F0CE01019647DB03C0CE010196D9
S11316A02FDC20E030E04AE754E4C301B201E6D283
S11316B003D2CB0168EE73E044D39F938F937F935F
S11316C06F93E9E5F2E0FF93EF93C055DF4F188184
S11316D0C05BD0401F93C155DF4F2881CF5AD04003
S11316E02F9374D382E016D98FE190E019D90FB605
S11316F0F894DEBF0FBECDBF80919E02811103C05E
S113170049E050E002C040E050E06EE670E0CE01F7
S11317108B559F4FC5D920E030E04AE754E4B5012A
S1131720CB54DF4F8881C55BD040CA54DF4F9881CA
S1131730C65BD040A3D2C0D1CB0168EE73E001D325
S11317409F938F937F936F93A6E3B2E0BF93AF937E
S1131750CE54DF4FF881C25BD040FF93CF54DF4FAC
S11317600881C15BD0400F9331D320E030E04AE7D9
S113177054E4C954DF4F6881C75BD040C854DF4F7D
S11317807881C85BD040832D922D78D295D1CB013E
S113179068EE73E0D6D29F938F937F936F932CE47C
S11317A032E03F932F93CC54DF4F9881C45BD040F9
S11317B09F93CD54DF4FA881C35BD040AF9306D332
S11317C00FB6F894DEBF0FBECDBF80910802882308
S11317D019F181E09FD80FEF1FEF29E330E044E0D7
S11317E051E069E370E084E190E0C4D929ED30E090
S11317F044E051E069ED70E084E190E0BBD94FE250
S113180050E06AE570E0CE018B579F4F49D94EED09
S113181050E06AE570E00CC048E750E069E170E030
S1131820CE018B579F4F3CD94CE850E069E170E002
S1131830CE018B599F4F34D9C301B201B1DC88EE7C
S113184093E053D09FCD83E065D880EE97E068D8CD
S11318504CE350E062E370E082E692E021D94AE58D
S113186050E062E370E080E792E01AD948E750E084
S113187062E370E08EE792E013D944EB50E062E358
S113188070E08DE892E00CD97DCD84B1876084B995
S113189023982B988CE58CBD8DB581608DBD089502
S11318A08EBD0DB407FEFDCF8EB5089514BC85B56D
S11318B08B7F85BD85B5836085BD86E086BDEEE6FC
S11318C0F0E0808181608083089510928000E1E8D7
S11318D0F0E08081897F80838081816080831092A1
S11318E0850010928400B19A08952EE330E80197A0
S11318F060F0209389003093880010928500109244
S11319008400B19AB19BFECFF2CF08955058BB2703
S1131910AA270ED075C166D130F06BD120F031F416
S11319209F3F11F41EF45BC10EF4E095E7FB51C137
S1131930E92F77D180F3BA176207730784079507F5
S113194018F071F49EF58FC10EF4E0950B2EBA2FAA
S1131950A02D0B01B90190010C01CA01A0011124B1
S1131960FF27591B99F0593F50F4503E68F11A165D
S1131970F040A22F232F342F4427585FF3CF4695EE
S113198037952795A795F0405395C9F77EF41F1610
S1131990BA0B620B730B840BBAF09150A1F0FF0FDA
S11319A0BB1F661F771F881FC2F70EC0BA0F621FC6
S11319B0731F841F48F4879577956795B795F795B6
S11319C09E3F08F0B3CF9395880F08F09927EE0F48
S11319D0979587950895D9D008F481E008950CD09F
S11319E00FC107D140F0FED030F021F45F3F19F071
S11319F0F0C0511139C1F3C014D198F39923C9F33C
S1131A005523B1F3951B550BBB27AA276217730700
S1131A10840738F09F5F5F4F220F331F441FAA1FB4
S1131A20A9F333D00E2E3AF0E0E830D09150504074
S1131A30E695001CCAF729D0FE2F27D0660F771F22
S1131A40881FBB1F261737074807AB07B0E809F004
S1131A50BB0B802DBF01FF2793585F4F2AF09E3F99
S1131A60510568F0B6C000C15F3FECF3983EDCF36B
S1131A70869577956795B795F7959F5FC9F7880F12
S1131A80911D9695879597F90895E1E0660F771F64
S1131A90881FBB1F621773078407BA0720F0621BF5
S1131AA0730B840BBA0BEE1F88F7E095089504D0EE
S1131AB06894B111D9C00895BCD088F09F5790F0B4
S1131AC0B92F9927B751A0F0D1F0660F771F881F5F
S1131AD0991F1AF0BA95C9F712C0B13081F0C3D07A
S1131AE0B1E00895C0C0672F782F8827B85F39F018
S1131AF0B93FCCF3869577956795B395D9F73EF4BE
S1131B0090958095709561957F4F8F4F9F4F089565
S1131B10E89409C097FB3EF4909580957095619583
S1131B207F4F8F4F9F4F9923A9F0F92F96E9BB2739
S1131B309395F695879577956795B795F111F8CFB5
S1131B40FAF4BB0F11F460FF1BC06F5F7F4F8F4F20
S1131B509F4F16C0882311F096E911C0772321F016
S1131B609EE8872F762F05C0662371F096E8862FAE
S1131B7070E060E02AF09A95660F771F881FDAF705
S1131B80880F9695879597F90895990F0008550F32
S1131B90AA0BE0E8FEEF16161706E807F907C0F0EF
S1131BA012161306E407F50798F0621B730B840BF7
S1131BB0950B39F40A2661F0232B242B252B21F4D1
S1131BC008950A2609F4A140A6958FEF811D811D71
S1131BD0089597F99F6780E870E060E008959FEFAB
S1131BE080EC089500240A941616170618060906B0
S1131BF0089500240A94121613061406050608957F
S1131C00092E0394000C11F4882352F0BB0F40F406
S1131C10BF2B11F460FF04C06F5F7F4F8F4F9F4F46
S1131C20089557FD9058440F551F59F05F3F71F0C8
S1131C304795880F97FB991F61F09F3F79F087952F
S1131C400895121613061406551FF2CF4695F1DFB8
S1131C5008C0161617061806991FF1CF8695710548
S1131C60610508940895E894BB2766277727CB017C
S1131C7097F908958ADF08F48FEF08950BD0C0CF49
S1131C80B1DF28F0B6DF18F0952309F0A2CFA7CF73
S1131C901124EACFC6DFA0F3959FD1F3950F50E04E
S1131CA0551F629FF001729FBB27F00DB11D639F0A
S1131CB0AA27F00DB11DAA1F649F6627B00DA11DB0
S1131CC0661F829F2227B00DA11D621F739FB00D56
S1131CD0A11D621F839FA00D611D221F749F3327C6
S1131CE0A00D611D231F849F600D211D822F762F5F
S1131CF06A2F11249F5750408AF0E1F088234AF05C
S1131D00EE0FFF1FBB1F661F771F881F91505040A7
S1131D10A9F79E3F510570F05CCFA6CF5F3FECF36F
S1131D20983EDCF3869577956795B795F795E79593
S1131D309F5FC1F7FE2B880F911D9695879597F9A4
S1131D400895AA1BBB1B51E107C0AA1FBB1FA617FE
S1131D50B70710F0A61BB70B881F991F5A95A9F750
S1131D6080959095BC01CD010895A1E21A2EAA1B7D
S1131D70BB1BFD010DC0AA1FBB1FEE1FFF1FA21737
S1131D80B307E407F50720F0A21BB30BE40BF50B34
S1131D90661F771F881F991F1A9469F760957095BD
S1131DA0809590959B01AC01BD01CF010895A29F40
S1131DB0B001B39FC001A39F700D811D1124911D1B
S1131DC0B29F700D811D1124911D08950F931F93CF
S1131DD0CF93DF93CDB7DEB72E970FB6F894DEBF5F
S1131DE00FBECDBF0E891F8986E08C831A830983B9
S1131DF08FEF9FE79E838D83AE01465E5F4F688DB4
S1131E00798DCE01019610D0EF81F885E00FF11F96
S1131E1010822E960FB6F894DEBF0FBECDBFDF91B1
S1131E20CF911F910F9108952F923F924F925F92FD
S1131E306F927F928F929F92AF92BF92CF92DF92D6
S1131E40EF92FF920F931F93CF93DF93CDB7DEB73B
S1131E502B970FB6F894DEBF0FBECDBF6C017B018C
S1131E608A01FC0117821682838181FFBFC1CE01E2
S1131E7001963C01F6019381F70193FD859193FF4F
S1131E8081917F01882309F4ADC1853239F493FD32
S1131E90859193FF81917F01853221F4B60190E011
S1131EA0D6D1E8CF912C212C312CFFE1F315D8F0B9
S1131EB08B3279F038F4803279F08332A1F4232D17
S1131EC020611DC08D3261F0803369F4232D2160BF
S1131ED016C0832D8260382EE32DE4603E2E2AC086
S1131EE0F32DF8601DC037FC2DC020ED280F2A30DB
S1131EF040F08E32B9F436FC75C1232D2064322EA5
S1131F0019C036FE06C08AE0989E200D1124922E38
S1131F1011C0EAE02E9E200D1124222EF32DF06232
S1131F203F2E08C08C3621F4832D8068382E02C0E1
S1131F30883641F4F70193FD859193FF81917F01E8
S1131F408111B3CF982F9F7D9554933028F40C5F63
S1131F501F4F9FE399830DC0833631F0833771F0AF
S1131F60833509F055C020C0F801808189830E5F54
S1131F701F4F88248394912C530112C02801F2E04E
S1131F804F0E511CF801A080B18036FE03C0692DAC
S1131F9070E002C06FEF7FEFC5014ED14C018201AA
S1131FA0F32DFF773F2E15C0280122E0420E511C6D
S1131FB0F801A080B18036FE03C0692D70E002C034
S1131FC06FEF7FEFC5012DD14C01F32DF0683F2E4B
S1131FD0820133FC19C0822D90E088169906A0F482
S1131FE0B60180E290E033D12A94F5CFF50137FCB5
S1131FF0859137FE81915F01B60190E028D12110CF
S11320002A9421E0821A91088114910479F7E1C09D
S1132010843611F0893639F5F80137FE07C060813E
S11320207181828193810C5F1F4F08C0608171812F
S1132030072E000C880B990B0E5F1F4FF32DFF76B4
S11320403F2E97FF09C090958095709561957F4FBD
S11320508F4F9F4FF0683F2E2AE030E0A30133D129
S1132060882E861844C0853731F4232D2F7EB22E56
S11320702AE030E025C0932D997FB92E8F36C1F028
S113208018F4883579F0AEC0803719F0883721F01C
S1132090A9C0E92FE061BE2EB4FE0DC0FB2DF46093
S11320A0BF2E09C034FE0AC0292F2660B22E06C0F6
S11320B028E030E005C020E130E002C020E132E059
S11320C0F801B7FE07C060817181828193810C5F42
S11320D01F4F06C06081718180E090E00E5F1F4F4A
S11320E0A301F1D0882E8618FB2DFF773F2E36FEF4
S11320F00DC0232D2E7FA22E891458F434FE0BC05C
S113210032FC09C0832D8E7EA82E05C0B82CA32CCA
S113211003C0B82C01C0B92CA4FE0FC0FE01E80D09
S1132120F11D8081803321F49A2D997EA92E09C056
S1132130A2FE06C0B394B39404C08A2D867809F035
S1132140B394A3FC10C0A0FE06C0B21480F4280C03
S1132150922C9B180DC0B21458F4B60180E290E0A2
S113216076D0B394F8CFB21418F42B1802C0982C7C
S1132170212CA4FE0FC0B60180E390E068D0A2FE3B
S113218016C0A1FC03C088E790E002C088E590E097
S1132190B6010CC08A2D867851F0A1FE02C08BE2F4
S11321A001C080E2A7FC8DE2B60190E050D0891412
S11321B030F4B60180E390E04AD09A94F8CF8A9440
S11321C0F301E80DF11D8081B60190E040D081104B
S11321D0F6CF222009F44ECEB60180E290E037D04B
S11321E02A94F7CFF6018681978102C08FEF9FEF83
S11321F02B960FB6F894DEBF0FBECDBFDF91CF9103
S11322001F910F91FF90EF90DF90CF90BF90AF9010
S11322109F908F907F906F905F904F903F902F9002
S11322200895FC010590615070400110D8F7809525
S113223090958E0F9F1F0895FC016150704001908E
S11322400110D8F7809590958E0F9F1F08950F93D6
S11322501F93CF93DF93FB01238121FD03C08FEFF5
S11322609FEF2CC022FF16C04681578124813581FF
S11322704217530744F4A081B1819D012F5F3F4F62
S1132280318320838C93268137812F5F3F4F37839F
S1132290268314C08B01EC01FB010084F185E02D41
S11322A01995892BE1F6D80116968D919C91179773
S11322B0019617969C938E931697CE01DF91CF913A
S11322C01F910F910895FA01AA27283051F1203166
S11322D081F1E8946F936E7F6E5F7F4F8F4F9F4FB6
S11322E0AF4FB1E03ED0B4E03CD0670F781F891FF8
S11322F09A1FA11D680F791F8A1F911DA11D6A0FC6
S1132300711D811D911DA11D20D009F468943F9178
S11323102AE0269F11243019305D3193DEF6CF0177
S11323200895462F4770405D4193B3E00FD0C9F73D
S1132330F6CF462F4F70405D4A3318F0495D31FDAA
S11323404052419302D0A9F7EACFB4E0A6959795FD
S1132350879577956795BA95C9F7009761057105D3
S113236008959B01AC010A2E06945795479537951D
S11323702795BA95C9F7620F731F841F951FA01D77
S10923800895F894FFCF5C
S113238601FFFF4001F00001012A002000566F6C96
S1132396746167653A00437572736F723A004375E8
S11323A672736F7200486F6C6400576176650054EF
S11323B66F67676C65004D617820566F6C74616752
S11323C6653A2025752E2530337556004D696E20E5
S11323D6566F6C746167653A2025752E2530337502
S11323E65600506F7765722020202020204F4E0023
S11323F6446973706C6179202020204F4E00537914
S11324067374656D20202020204F4646005761696D
S10B241674696E672E2E2E007E
S9030000FC
