S0150000456D5379735F50726F6A6563742E73726563E8
S113000029C300000C94E10B0C94D20B0C94C30B89
S11300100C94B40B0C94A50B3EC300003CC300002D
S11300203AC3000038C3000036C3000034C30000E4
S113003032C3000030C300002EC300002CC30000F4
S11300402AC3000028C3000026C3000024C3000004
S113005022C3000020C300001EC300000C947E0BCA
S11300601AC3000018C3000016C3000014C3000024
S113007012C3000010C300000EC300000CC3000034
S11300800AC3000008C3000006C3000004C3000044
S113009002C3000000C30000FEC20000FCC2000056
S11300A0FAC20000F8C20000F6C20000F4C2000068
S11300B0F2C20000F0C20000EEC20000ECC2000078
S11300C0EAC20000E8C20000E6C20000E4C2000088
S11300D0E2C20000E0C20000DEC20000DCC2000098
S11300E0DAC20000EF03038002CF0300C130ED0445
S11300F064031281E803850078CB05392C003402AF
S1130100F70120EA020000C00123C10110C5023E2C
S113011028C701863601483701003A0155B102006B
S113012018B603088227F20100260101E00F0F31FF
S11301302B0C0E084EF1370710030E0900E10F00D7
S11301400E1403110731C148080F0C31360F11800A
S113015029800000000000003E5B4F5B3E3E6B4F79
S11301606B3E1C3E7C3E1C183C7E3C181C577D5745
S11301701C1C5E7F5E1C00183C1800FFE7C3E7FFF1
S11301800018241800FFE7DBE7FF30483A060E2684
S113019029792926407F050507407F05253F5A3CDC
S11301A0E73C5A7F3E1C1C08081C1C3E7F14227F1F
S11301B022145F5F005F5F06097F017F00668995F7
S11301C06A606060606094A2FFA29408047E0408E0
S11301D010207E201008082A1C08081C2A08081E63
S11301E0101010100C1E0C1E0C30383E3830060E49
S11301F03E0E06000000000000005F000000070043
S11302000700147F147F14242A7F2A1223130864FE
S11302106236495620500008070300001C224100A2
S11302200041221C002A1C7F1C2A08083E080800E2
S11302308070300008080808080000606000201082
S11302400804023E5149453E00427F40007249493C
S113025049462141494D331814127F10274545451D
S1130260393C4A494931412111090736494949363E
S1130270464949291E0000140000004034000000D3
S11302800814224114141414140041221408020105
S11302905909063E415D594E7C1211127C7F494931
S11302A049363E414141227F4141413E7F494949CE
S11302B0417F090909013E414151737F0808087FC4
S11302C000417F41002040413F017F081422417FCB
S11302D0404040407F021C027F7F0408107F3E4163
S11302E041413E7F090909063E4151215E7F0919BA
S11302F02946264949493203017F01033F404040D2
S11303003F1F2040201F3F4038403F6314081463C0
S113031003047804036159494D43007F414141027C
S113032004081020004141417F04020102044040BE
S1130330404040000307080020545478407F28447C
S113034044383844444428384444287F3854545466
S11303501800087E090218A4A49C787F0804047875
S113036000447D40002040403D007F1028440000B0
S1130370417F40007C047804787C08040478384485
S1130380444438FC1824241818242418FC7C080439
S11303900408485454542404043F44243C4040205A
S11303A07C1C2040201C3C4030403C442810284405
S11303B04C9090907C4464544C44000836410000B6
S11303C000770000004136080002010204023C26C6
S11303D023263C1EA1A161123A4040207A3854548D
S11303E05559215555794122545478422155547810
S11303F04020545579400C1E5272123955555559A6
S1130400395454545939555454580000457C4100CA
S113041002457D420001457C407D1211127DF02889
S11304202528F07C545545002054547C547C0A09FA
S11304307F4932494949323A4444443A324A484865
S1130440303A4141217A3A42402078009DA0A07D73
S11304503D4242423D3D4040403D3C24FF2424482F
S11304607E4943662B2FFC2F2BFF0929F620C088D9
S11304707E090320545479410000447D41304848AA
S11304804A32384040227A007A0A0A727D0D1931C4
S11304907D2629292F28262929292630484D402020
S11304A0380808080808080808382F10C8ACBA2FFC
S11304B0102834FA00007B000008142A14222214A5
S11304C02A14085500550055AA55AA55AAFF55FFE8
S11304D055FF000000FF00101010FF00141414FF5B
S11304E0001010FF00FF1010F010F0141414FC00A2
S11304F01414F700FF0000FF00FF1414F404FC14AC
S11305001417101F10101F101F1414141F001010A4
S113051010F0000000001F101010101F1010101019
S1130520F010000000FF101010101010101010FF39
S113053010000000FF140000FF00FF00001F101750
S11305400000FC04F414141710171414F404F40039
S113055000FF00F714141414141414F700F71414FF
S113056014171410101F101F141414F4141010F086
S113057010F000001F101F0000001F14000000FCFA
S1130580140000F010F01010FF10FF141414FF14E6
S11305901010101F00000000F010FFFFFFFFFFF01D
S11305A0F0F0F0F0FFFFFF0000000000FFFF0F0F6E
S11305B00F0F0F3844443844FC4A4A4A347E02023E
S11305C00606027E027E0263554941633844443C78
S11305D004407E201E2006027E020299A5E7A5990A
S11305E01C2A492A1C4C7201724C304A4D4D303041
S11305F048784830BC625A463D3E494949007E012C
S113060001017E2A2A2A2A2A44445F444440514A4A
S1130610444040444A51400000FF0103E080FF0091
S11306200008086B6B083612362436060F090F06CD
S1130630000018180000001010003040FF010100F5
S11306401F01011E00191D1712003C3C3C3C000018
S11306500000000011241FBECFEFD1E2DEBFCDBFEA
S113066000E00CBF12E0A0E0B2E0E8E1FDE200E04F
S11306700BBF02C007900D92A83DB107D9F723E044
S1130680A8EDB2E001C01D92A73CB207E1F70E94B9
S1130690070C0C948A16B4CC80E480937C0087E821
S11306A080937A000895CF92DF92EF92FF92CF93D6
S11306B0DF93C82FDAE0C12CD12C760180917A0027
S11306C0806480937A0080917A0086FDFCCF8091CB
S11306D078002091790090E0922B092E000CAA0B4F
S11306E0BB0BC80ED91EEA1EFB1E81E090E00E94DF
S11306F0F510D15019F7C701B6012AE030E040E007
S113070050E00E947E13CA01B9010E9451126B018C
S11307107C0120E030E0A9010E94B411882309F48F
S11307205EC0C1114DC02CEE31E548E950E4C7016B
S1130730B6010E94071320E030EC4FE754E40E9416
S1130740B81126E636E646E85FE30E9407132CEB71
S113075034E743E15CE30E9450116B017C012DEC12
S11307603CEC4CE45FE30E94B41187FD19C02AE914
S113077039E949E95FE3C701B6010E94B41187FD75
S113078014C02DEC3CEC4CE050E4C701B6010E94CF
S1130790B41187FF0FC06AE077ED83EA9BE30DC0D5
S11307A06AE077ED83E29CE308C066EA7BE984ECC7
S11307B09BE303C060E070E0CB01A70196010CC08D
S11307C026EA3BE944EC5CE3C701B6010E94071347
S11307D026EA3BE944EC5CE30E94501103C060E06C
S11307E070E0CB01DF91CF91FF90EF90DF90CF903D
S11307F008956C98749AEAE6F0E080818C7F808397
S1130800808182608083EC9A08958AB181708AB96C
S11308108AB182708AB98BB183608BB9E9E6F0E062
S113082080818C7F80838081837F808380818A60C4
S113083080838DB383608DBB08958AB188708AB933
S11308405B9AE9E6F0E080818F7380838081806821
S11308508083EB9A08952E982C9890E00E94CD10F6
S11308602E9A08952E982C9A90E00E94CD102E9ADC
S113087008952C982E9808952C9A2E9808952E9ABF
S113088086E08A95F1F700C00895CF92DF92FF9237
S11308900F931F93CF93DF9384B1806784B92E9A0B
S11308A02C9A2D9A2D9887E893E10197F1F700C0CF
S11308B000002D9AEBE7F2E93197F1F700C0000050
S11308C004EE10E0C8010196F801F490FF2061F1F4
S11308D00E5F1F4FFC01D491CD2FCF77CADF8F2D30
S11308E090E00E94CD10CBDFCC23A9F0C5DF6801D6
S11308F0F12CF601849190E00E94CD10F394FFEF67
S1130900CF1ADF0ACF11F5CFC1508C2F90E001969A
S1130910080F191FB4DFD7FFD5CF8BE792E90197F2
S1130920F1F700C00000CECFDF91CF911F910F915E
S1130930FF90DF90CF900895CF9383708093DC0273
S1130940823001F1833061F1813071F080EF90E009
S1130950909306028093050280E491E09093040250
S113096080930302C8E429C080E491E090930602D6
S11309708093050280EF90E0909304028093030239
S1130980C8E21BC080EF90E09093060280930502BA
S113099080E491E09093040280930302C8E80DC0C0
S11309A080E491E0909306028093050280EF90E04A
S11309B09093040280930302C8EE86E34CDF8C2FED
S11309C0CF9150CFCF92DF92EF92FF920F931F936C
S11309D0CF93DF936C017B01415051098A01080FC9
S11309E0191FE9012197C60FD71F8AE234DF8D2D25
S11309F039DF8C2D37DF812F35DF802F33DF8BE21A
S1130A002ADF8F2D2FDF8E2D2DDF8D2F2BDF8C2FC7
S1130A1029DF8CE2DF91CF911F910F91FF90EF902E
S1130A20DF90CF9018CF811101C081E08093000244
S1130A300895909302028093010208958F929F92E9
S1130A40AF92BF92CF92DF92EF92FF920F931F93D8
S1130A50CF936A017901C12FB5DF8CE2FCDE0CDF94
S1130A609601D7010E94A0134B015C01C12CD12C2B
S1130A7076011127C814D904EA04FB0469F08C2F09
S1130A8090E00E94CD10C8010E94CD108FEFC81ACB
S1130A90D80AE80AF80AEECFCF911F910F91FF9080
S1130AA0EF90DF90CF90BF90AF909F908F90E7CE64
S1130AB06F927F928F929F92AF92BF92CF92DF926A
S1130AC0EF92FF920F931F93CF93DF9390EE980FC3
S1130AD0903608F061C04A015B0195E0899F3001BE
S1130AE01124E12CF12CF301EE0DFF1DED5AFE4F04
S1130AF0E491C12CD12CCE2FD0E0CE010C2C02C01D
S1130B00959587950A94E2F780FF05C0009101024C
S1130B101091020204C00091DD021091DE024091A6
S1130B20000250E0C49EB001C59E700DD49E700DAD
S1130B301124680D791DE49EC001E59E900DF49E7C
S1130B40900D11249A018A0D9B1D78DFAFEFCA1A0C
S1130B50DA0AE8E0CE16D10481F6FFEFEF1AFF0AB5
S1130B6085E0E816F10409F0BECF809100020091FF
S1130B70DD021091DE02482F50E09A0193E0220F2B
S1130B80331F9A95E1F7B401F501A5E08A9FE00DC2
S1130B90F11D1124CF0152DFDF91CF911F910F91ED
S1130BA0FF90EF90DF90CF90BF90AF909F908F9089
S1130BB07F906F900895EF92FF920F931F93CF93BE
S1130BC0DF93EB017A018C01F80181918F01882375
S1130BD059F0A701BE016CDF8091000296E0899F65
S1130BE0C00DD11D1124F0CFDF91CF911F910F9132
S1130BF0FF90EF900895CF92DF92EF92FF921F93B0
S1130C00CF93DF93EC011D2F209103023091040256
S1130C10409105025091060260E070E080E090E0AF
S1130C20D1DE8CE218DE28DEC12CD12C7601DD2742
S1130C302091050230910602A0910302B0910402B2
S1130C400E94A013C616D706E806F90668F4812F99
S1130C5090E00E94CD10CE010E94CD108FEFC81AF3
S1130C60D80AE80AF80AE4CFDF91CF911F91FF90E8
S1130C70EF90DF90CF9003CE0F931F938A0121E072
S1130C8030E041E050E0DADE1F910F9108952F9299
S1130C903F924F925F926F927F928F929F92AF9208
S1130CA0BF92CF92DF92EF92FF920F931F93CF9355
S1130CB0DF9300D000D0CDB7DEB77C017E836D8397
S1130CC05A01390128018A01081B190B17FF03C0B7
S1130CD011950195110963012D813E81C21AD30A30
S1130CE0D7FE03C0D194C194D108882799278C19C1
S1130CF09D099C838B83EA14FB0424F022242A9408
S1130D00322C03C022242394312C2D813E812615BC
S1130D1037052CF08FEF9FEF9A83898304C021E07D
S1130D2030E03A83298348018C189D08A2016D8123
S1130D307E81C701A1DFEA14FB0429F48D819E8121
S1130D4086159705D1F0C401880F991F2B813C812A
S1130D50821793073CF08C189D08E20CF31C0817CB
S1130D60190724F3800E911E8D819E8129813A8179
S1130D70820F931F9E838D83D9CF26960FB6F89446
S1130D80DEBF0FBECDBFDF91CF911F910F91FF90BA
S1130D90EF90DF90CF90BF90AF909F908F907F9017
S1130DA06F905F904F903F902F9008958F929F92F5
S1130DB0AF92BF92CF92DF92EF92FF920F931F9365
S1130DC0CF93DF934B015C016901D42FC52F0E949F
S1130DD0B41187FF03C04601AD2EBC2E9701A801B4
S1130DE0B401C5010E940313181614F447015801F5
S1130DF096014D2F5C2FB401C5010E944F114B0188
S1130E005C0196014D2F5C2FB701C8010E944F1160
S1130E109B01AC01C501B4010E94B81120E030E08F
S1130E204CE053E40E9407130E9425122FEC30E09B
S1130E30C901861B970BDF91CF911F910F91FF90F2
S1130E40EF90DF90CF90BF90AF909F908F900895D8
S1130E500F931F9300E010E023EE30E045EF50E0E5
S1130E606FE270E082E190E0E9DD1F910F91089557
S1130E70AF92BF92CF92DF92EF92FF920F931F93A4
S1130E80CF93DF9381E090E09093DB028093DA02CA
S1130E90E091D802F091D90283E0EE0FFF1F8A950A
S1130EA0E1F7E450FD4FC081D181E280F38000E09E
S1130EB018EF2FEC30E0AE0163E470E0CE01E7DE22
S1130EC0670182E0C80ED11C5E0182E0A80EB11C4D
S1130ED082E0E81AF10822979601A501B701CE0134
S1130EE0D6DE9701A501B601CE01D1DEDF91CF9107
S1130EF01F910F91FF90EF90DF90CF90BF90AF9034
S1130F0008952F923F924F925F926F927F928F92A9
S1130F109F92AF92BF92CF92DF92EF92FF920F9384
S1130F201F93CF93DF93CDB7DEB72C970FB6F8940A
S1130F30DEBF0FBECDBF6C017A83698329013A01FC
S1130F404701580100E010E021E930E045EF50E0AE
S1130F506EE370E08FE090E071DD89819A8118166C
S1130F6019060CF0C0C04A9724F0E9E1F0E0FA83D6
S1130F70E98389819A819093E0028093DF02CD8294
S1130F80DE82ACEFB2E0B887AF83212C312C84E150
S1130F90C82ED12C8091DF029091E00228163906E8
S1130FA00CF07EC0AD81BE818D919D910D90BC9160
S1130FB0A02D89839A83AB83BC8383017201A5012D
S1130FC09401BC01CD01F2DE9C878B87EF81F8850B
S1130FD0D182C0829383828389819A81AB81BC81CF
S1130FE084839583A683B78300EE17E02B853C8525
S1130FF0A6016FEC70E0C6014ADE8091DF02909199
S1131000E002019728163906BCF4AD81BE8114961E
S11310106D917D918D919C91179783017201A5012A
S11310209401C4DE00EE17E09C01A601465F5F4F09
S11310306B857C85C6012BDEEB85FC853296FA83B5
S1131040E983C60102969A878987AB85BC85129786
S1131050BC87AB877601B2E0EB1AF1080FE110E030
S11310609F01AC016B857C85C70111DE2B853C8516
S113107049855A8569817A81C70109DEEAE0CE0E85
S1131080D11C8D819E8104969E838D83AF81B8850A
S11310901896B887AF83BEE0CB16B1E0DB06F9F44F
S11310A08091DA029091DB02892BE9F02C960FB63D
S11310B0F894DEBF0FBECDBFDF91CF911F910F918A
S11310C0FF90EF90DF90CF90BF90AF909F908F9064
S11310D07F906F905F904F903F902F90C9CEEFEF2D
S11310E02E1A3E0A57CF2C960FB6F894DEBF0FBEC9
S11310F0CDBFDF91CF911F910F91FF90EF90DF90C3
S1131100CF90BF90AF909F908F907F906F905F90A3
S11311104F903F902F9008952F923F924F925F925D
S11311206F927F928F929F92AF92BF92CF92DF92F3
S1131130EF92FF920F931F93CF93DF93CDB7DEB758
S113114060970FB6F894DEBF0FBECDBF9E878D8724
S11311507A83698329013A014701580100E010E0CC
S113116021E930E045EF50E061E470E082E190E095
S113117065DC29813A81223031050CF423C12A31FE
S1131180310524F089E190E09A838983A981BA81A9
S1131190B093E002A093DF022D843E84ECEFF2E0F2
S11311A0FA83E98321E030E03A87298764E1C62E97
S11311B0D12C8091DF029091E00249855A8548172D
S11311C059070CF079C0A601465F5F4F5C874B87D7
S11311D0D1018D919D910D90BC91A02D8D839E8305
S11311E0AF83B88783017201A5019401BC01CD01CD
S11311F0DDDD988B8F87F10164817581868197810C
S1131200A5019401D3DDA981BA811196DC92CE9215
S1131210EF85F8891396FC93EE9312972D813E8106
S11312204F81588514962D933D934D935C93179756
S113123000EE17E09C014B855C85BF01C60127DDEC
S1131240EF85F8893296FE83ED837601F2E0EF0EA6
S1131250F11C2F85388922503109388B2F8732E0D1
S1131260C31AD1080FE110E02D813E81A7016F85DB
S11312707889C6010CDD2F853889A7016D817E81AF
S1131280C60105DD44E0240E311C89819A8108964B
S11312909A838983AB85BC85AE30E1E0BE0741F01B
S11312A029853A852F5F3F4F3A8729876D0181CF82
S11312B05EE0C52EDD24D3948091DF029091E0029C
S11312C0823091050CF45FC0DC0123E0AA0FBB1F40
S11312D02A95E1F7AC50BD4FBE83AD83CD92DC922D
S11312E0FC01E150F04CEE0FFF1FEE0FFF1F2D85A8
S11312F03E85E20FF31F80819181A281B3818983AE
S11313009A83AB83BC8383017201A5019401BC0160
S1131310CD014CDDAD81BE8113969C938E931297C3
S113132029813A814B815C8114962D933D934D9391
S11313305C931797F6013296FA83E983F2E0CF1AA9
S1131340D1089C012E5F3F4FBC01625071090FE12F
S113135010E049815A81C6019ADCE091DF02F091E4
S1131360E00243E0EE0FFF1F4A95E1F7EC50FD4F1A
S1131370628173819B01225031096E5F7F4F4981E5
S11313805A81C60184DC8091DA029091DB02892BB8
S1131390C9F060960FB6F894DEBF0FBECDBFDF91E3
S11313A0CF911F910F91FF90EF90DF90CF90BF905E
S11313B0AF909F908F907F906F905F904F903F90F1
S11313C02F9056CD60960FB6F894DEBF0FBECDBFFA
S11313D0DF91CF911F910F91FF90EF90DF90CF900D
S11313E0BF90AF909F908F907F906F905F904F9041
S11313F03F902F9008950F931F93E091D802F0919E
S1131400D90283E0EE0FFF1F8A95E1F7E450FD4F08
S11314108081918100E010E02FEC30E0AC0163E4C6
S113142070E035DCE091D802F091D90293E0EE0F40
S1131430FF1F9A95E1F7E450FD4F6281738180812B
S113144091819B012E5F3F4FAC014E5F5F4F625015
S113145071090FE110E002971ADCE091D802F091D3
S1131460D90223E0EE0FFF1F2A95E1F7E450FD4F68
S113147062817381808191819B0122503109AC0189
S11314804E5F5F4F6E5F7F4F029701DC1F910F919C
S11314900895AF92BF92CF92DF92EF92FF920F9393
S11314A01F93CF93DF932091DA023091DB02232B39
S11314B009F48CC02091DF023091E002232B09F45F
S11314C085C0EC0198DFE091D802F091D90293E055
S11314D0EE0FFF1F9A95E1F7E450FD4F628173818F
S11314E0808191819B012E5F3F4FAC014E5F5F4F26
S11314F0625071090FE110E00297C9DBE091D80254
S1131500F091D90223E0EE0FFF1F2A95E1F7E45092
S1131510FD4F62817381808191819B012250310949
S1131520AC014E5F5F4F6E5F7F4F0297B0DB8091DF
S1131530D8029091D902C80FD91FD7FD05C0D09306
S1131540D902C093D80204C01092D9021092D802D2
S11315508091DF029091E0022091D8023091D9026B
S1131560281739072CF001979093D9028093D80259
S1131570E091D802F091D90283E0EE0FFF1F8A9523
S1131580E1F7E450FD4FC081D181E280F38000E0B7
S113159018EF2FEC30E0AE0163E470E0CE0177DBAE
S11315A0670182E0C80ED11C5E0182E0A80EB11C66
S11315B082E0E81AF10822979601A501B701CE014D
S11315C066DB9701A501B601CE0161DBDF91CF9106
S11315D01F910F91FF90EF90DF90CF90BF90AF904D
S11315E00895E091D802F091D90283E0EE0FFF1F35
S11315F08A95E1F7E450FD4F648175818681978176
S113160008958F929F92AF92BF92CF92DF92EF9202
S1131610FF920F931F93CF93DF9322E02093000256
S11316202AE939E949E150E4A3D60AD78B016B30A2
S1131630710514F00AE010E0C8ECD0E0812C912C84
S1131640E12C88EFF82E90E2C92E9DEFD92E20EEE2
S1131650A22E27E0B22E86E0881691042CF4B092D4
S11316600202A09201020DC089E08816910429F0BB
S1131670D0920202C092010204C0F0920202E092EF
S1131680010245E050E0BE01801691064CF488E06A
S113169092E091DA4FE050E0BE0188E092E008C0A9
S11316A08FE592E088DA4FE050E0BE018FE592E0EA
S11316B082DA8FEF881A980A2C968AE088169104A9
S11316C051F6DF91CF911F910F91FF90EF90DF9032
S11316D0CF90BF90AF909F908F9008950F931F93DA
S11316E000E010E023E230E048EB50E060E070E01E
S11316F080E090E0A3D91F910F9108951F920F925B
S11317000FB60F9211248F939F93AF93BF9386E0EC
S113171086BD8091F8029091F902A091FA02B091ED
S1131720FB020196A11DB11D8093F8029093F9026A
S1131730A093FA02B093FB02BF91AF919F918F9156
S11317400F900FBE0F901F9018951F920F920FB617
S11317500F9211248F9381E08093C6038F910F9091
S11317600FBE0F901F9018951F920F920FB60F92F5
S113177011248F9381E08093E5028F910F900FBE27
S11317800F901F9018951F920F920FB60F9211246D
S11317908F9381E08093EA028F910F900FBE0F9098
S11317A01F9018951F920F920FB60F9211248F93CA
S11317B081E08093C4038F910F900FBE0F901F9010
S11317C018951F920F920FB60F9211248F9381E0F8
S11317D08093C5038F910F900FBE0F901F901895A3
S11317E00F931F93FC01805A9F4F0481158126811A
S11317F037810193119321933193E817F907A9F7DE
S113180040835183628373831F910F910895CF9313
S1131810DF93CDB7DEB7C65CD1090FB6F894DEBF4F
S11318200FBECDBF7894C2D4D0D40E94F9030E94D5
S1131830050403D80E944C03A4D4B5D4E7D425D816
S113184083E07AD880E090E0D6D9FE01319684E630
S1131850DF011D928A95E9F7212C312C812C912CE2
S1131860B0EACB53DF4FB883C55CD04000E4CA5321
S1131870DF4F0883C65CD040A12CD12CC12CB12CE5
S11318809E0121553F4FC754DF4F39832883C95BDD
S1131890D040CE018B579F4FC554DF4F9983888327
S11318A0CB5BD040DE01AB59BF4FC354DF4FB9838C
S11318B0A883CD5BD040EC55FF4FC154DF4FF98373
S11318C0E883CF5BD0408091C603882381F14091A7
S11318D0F8025091F9026091FA027091FB02809132
S11318E0F3029091F402A091F502B091F6028A01FC
S11318F09B01081B190B2A0B3B0BD901C8018D3224
S11319009140A105B10598F08091F70221E082276A
S11319108093F7024093F3025093F4026093F5022C
S11319207093F60280E090E066D91092C60380912D
S1131930E502882369F14091F8025091F90260911F
S1131940FA027091FB028091F3029091F402A0914B
S1131950F502B091F6028A019B01081B190B2A0BB0
S11319603B0BD901C8018D329140A105B10580F02E
S11319708091070221E08227809307024093F302BB
S11319805093F4026093F5027093F6021092E5020C
S11319908091F702882309F4CCC382E044D88FE114
S11319A090E047D88091E902811107C04AE050E0F5
S11319B062E070E08AE092E00DC040E050E062E056
S11319C070E08AE092E0F7D84FE050E062E070E027
S11319D083E192E0F0D880EE97E02BD88091070263
S11319E04AE050E06CEB70E0882319F08BE192E060
S11319F002C08DE192E0DFD84091050250910602C9
S1131A000FEF1FEF23E230E063E270E080E090E04C
S1131A103ED920E030E048EB50E063E270E088EB30
S1131A2090E035D929ED30E048E151E069E370E018
S1131A3088E191E02CD929E330E044E551E069E301
S1131A4070E088E191E023D94091050250910602AB
S1131A5021E630E061E670E088E191E018D9409138
S1131A6005025091060229E830E069E870E088E157
S1131A7091E00DD9409105025091060221EB30E02E
S1131A8061EB70E088E191E002D940910502509148
S1131A90060229ED30E069ED70E088E191E0F7D8C5
S1131AA081E00E94130580EE97E00E94190548E446
S1131AB050E06DE171E08FE192E07DD840E750E0C5
S1131AC062E271E086E292E076D848E950E062E2B0
S1131AD071E08BE292E06FD840EC50E06BE171E092
S1131AE080E392E068D88091EA02882309F4AAC0CE
S1131AF01092EA0280E996D38C0180ED93D3BC0165
S1131B00C801A7D3182F823081F118F4813039F03D
S1131B1099C0833089F1843009F441C093C0809125
S1131B20E802811115C082E00E94130580E098EF5D
S1131B300E9419054CE350E069E170E087E392E00C
S1131B403AD840E550E066E170E08CE492E040C0B1
S1131B508091E902811104C08BD91093E90272C00B
S1131B604ADCBCDD1092E9026DC08091E60231E0EE
S1131B7083278093E60266C08091E802882351F0AF
S1131B801092E8021092E9021092E60234DCA6DD1B
S1131B905FD958C05DD981E08093E80253C0809139
S1131BA0E802811118C082E00E94130580E098EFDA
S1131BB00E9419054CE350E069E170E087E392E08C
S1131BC00E94DB0540E550E066E170E081E692E0CA
S1131BD00E94DB0537C08091E70281111DC091E0AE
S1131BE09093E7027401CB53DF4F0881C55CD0406A
S1131BF0CA53DF4F1881C65CD0402A2D3D2D4C2D91
S1131C005B2DB101CE0101967CD98091E902882334
S1131C10C9F0F1DB2DD916C01092E7027401CB5341
S1131C20DF4F0881C55CD040CA53DF4F1881C65CC2
S1131C30D0402A2D3D2D4C2D5B2DB101CE010196B6
S1131C406BDAE3CF809107020E9453032B013C011E
S1131C508091E60281111CC0A9E12A1631049CF48A
S1131C60F101EE0FFF1FEE0FFF1F01E010E00C0F5C
S1131C701D1FE00FF11F40825182628273821FEFA9
S1131C80211A310A05C0B301A201CE010196A8DDD3
S1131C90A980DA80CB80BC809E012F5F3F4F790101
S1131CA08A2C9D2CCB53DF4FC882C55CD040CA53CD
S1131CB0DF4FB882C65CD04000E010E02016310649
S1131CC009F462C0F70181919191A191B1917F01D1
S1131CD0CF53DF4F88839983AA83BB83C15CD040F1
S1131CE09C01AD01B401CB53DF4F8881C55CD0406A
S1131CF0CA53DF4F9881C65CD04085D41816F4F4DB
S1131D00CF53DF4F8880C15CD040CE53DF4F9880E3
S1131D10C25CD040CD53DF4FF881C35CD040CB537D
S1131D20DF4FF883C55CD040CC53DF4F2881C45CBF
S1131D30D040CA53DF4F2883C65CD040CF53DF4F17
S1131D40288139814A815B81C15CD0406A2D7D2D17
S1131D508C2D9B2D09D387FF14C0CF53DF4FA88050
S1131D60C15CD040CE53DF4FD880C25CD040CD534D
S1131D70DF4FC880C35CD040CC53DF4FB880C45C15
S1131D80D0400F5F1F4F9ACF9091E6028091E802F6
S1131D909817D8F48091E7027401CB53DF4F088180
S1131DA0C55CD040CA53DF4F1881C65CD0402A2D91
S1131DB03D2D4C2D5B2DB101882321F0CE010196E0
S1131DC0A0D803C0CE010196A7D920E030E04AE7AD
S1131DD054E4C301B2011BD438D38B0120E030E0BA
S1131DE040E251E4C301B2010ED41816CCF4C80188
S1131DF068EE73E06FD49F938F937F936F9389E919
S1131E0092E09F938F93C654DF4FB881CA5BD04052
S1131E10BF93C754DF4FE881C95BD040EF9318C02C
S1131E20C80168EE73E056D49F938F937F936F93AA
S1131E3028E932E03F932F93C654DF4F9881CA5B61
S1131E40D0409F93C754DF4FA881C95BD040AF9364
S1131E5086D40FB6F894DEBF0FBECDBF82E00E94D9
S1131E6013058FE190E00E9419058091E902811128
S1131E7003C049E050E002C040E050E064E670E096
S1131E80CE0181559F4F0E94DB0520E030E04AE7F8
S1131E9054E46A2D7D2D8C2D9B2DB9D3D6D2CB0144
S1131EA068EE73E017D49F938F937F936F9306E745
S1131EB012E01F930F93C454DF4F3881CC5BD040A2
S1131EC03F93C554DF4F8881CB5BD0408F9347D479
S1131ED020E030E04AE754E4B401CB53DF4F88817B
S1131EE0C55CD040CA53DF4F9881C65CD0408FD3C5
S1131EF0ACD2CB0168EE73E0EDD39F938F937F93C5
S1131F006F93ACE8B2E0BF93AF93C254DF4FF88154
S1131F10CE5BD040FF93C354DF4F0881CD5BD040EC
S1131F200F931DD40FB6F894DEBF0FBECDBF8091C2
S1131F30E802882339F181E00E9413050FEF1FEFB7
S1131F4029E330E044E051E069E370E084E190E0AB
S1131F500E94470629ED30E044E051E069ED70E06D
S1131F6084E190E00E9447064FE250E06AE570E0A9
S1131F70CE018B579F4F0E94DB054EED50E06AE582
S1131F8070E00DC048E750E069E170E0CE018B5786
S1131F909F4F0E94DB054CE850E069E170E0CE0100
S1131FA08B599F4F0E94DB058091E902882309F435
S1131FB0BCC08091C403882351F18091F8029091B0
S1131FC0F902A091FA02B091FB024091EB02509108
S1131FD0EC026091ED027091EE028C019D01041BF4
S1131FE0150B260B370BB901A8014D325140610581
S1131FF0710568F08093EB029093EC02A093ED02DC
S1132000B093EE0281E090E044DA1092C403809130
S1132010C503882351F18091F8029091F902A091AF
S1132020FA02B091FB024091EF025091F0026091EC
S1132030F1027091F2028C019D01041B150B260B19
S1132040370BB901A8014D3251406105710568F0A3
S11320508093EF029093F002A093F102B093F20206
S11320608FEF9FEF16DA1092C503BBDA6093E1029B
S11320707093E2028093E3029093E40220E030E064
S11320804AE754E4C4D2E1D18B0120E030E040E2DD
S113209051E4C301B201B7D21816CCF4C80168EEFA
S11320A073E018D39F938F937F936F9329E932E062
S11320B03F932F93C054DF4F9881C05CD0409F93CF
S11320C0C154DF4FA881CF5BD040AF9318C0C80183
S11320D068EE73E0FFD29F938F937F936F9308E929
S11320E012E01F930F93C054DF4F3881C05CD0407F
S11320F03F93C154DF4F8881CF5BD0408F932FD360
S11321000FB6F894DEBF0FBECDBF8FE190E00E9402
S1132110190582E00E9413054FE050E064E670E088
S1132120CE018B559F4F0E94DB05C301B20169DAD2
S1132130CACB83E00E94130580EE97E00E94190544
S11321404CE350E062E370E082EA92E00E94DB0537
S11321504AE550E062E370E080EB92E00E94DB0528
S113216048E750E062E370E08EEB92E00E94DB050A
S113217044EB50E062E370E08DEC92E00E94DB05FA
S1132180A2CB84B1876084B9289A23982B988CE5D4
S11321908CBD8DB581608DBD08958EBD0DB407FED7
S11321A0FDCF8EB50895279A2F9A089514BC85B54E
S11321B08B7F85BD85B5836085BD86E086BDEEE6F3
S11321C0F0E0808181608083089510928000E1E8CE
S11321D0F0E08081897F8083808181608083109298
S11321E0850010928400B19A08952EE330E8019797
S11321F060F020938900309388001092850010923B
S11322008400B19AB19BFECFF2CF089552985A9AA6
S1132210E9E6F0E080818062808380818F7E808324
S1132220EA9A0895CF932F98B8DF80E0B6DFC82FDD
S113223080E0B3DF2F9A2C2F30E0322F2227A90120
S1132240482BCA0123E0959587952A95E1F7CF910C
S113225008958A5E9D40873B9140F8F4CB018058F5
S11322609440803422E0920790F080549240803170
S113227022E0920770F080519240803B934058F0E6
S113228060587C406836714040F484E0089581E0F1
S1132290089582E0089583E0089580E008955058F9
S11322A0BB27AA270ED075C166D130F06BD120F0C0
S11322B031F49F3F11F41EF45BC10EF4E095E7FB8B
S11322C051C1E92F77D180F3BA17620773078407E6
S11322D0950718F071F49EF58FC10EF4E0950B2E5E
S11322E0BA2FA02D0B01B90190010C01CA01A00164
S11322F01124FF27591B99F0593F50F4503E68F1BF
S11323001A16F040A22F232F342F4427585FF3CFFF
S1132310469537952795A795F0405395C9F77EF4D0
S11323201F16BA0B620B730B840BBAF09150A1F019
S1132330FF0FBB1F661F771F881FC2F70EC0BA0F9F
S1132340621F731F841F48F4879577956795B79527
S1132350F7959E3F08F0B3CF9395880F08F099271F
S1132360EE0F979587950895D9D008F481E00895E4
S11323700CD00FC107D140F0FED030F021F45F3F04
S113238019F0F0C0511139C1F3C014D198F3992355
S1132390C9F35523B1F3951B550BBB27AA27621725
S11323A07307840738F09F5F5F4F220F331F441F6A
S11323B0AA1FA9F333D00E2E3AF0E0E830D09150A2
S11323C05040E695001CCAF729D0FE2F27D0660F8F
S11323D0771F881FBB1F261737074807AB07B0E8CE
S11323E009F0BB0B802DBF01FF2793585F4F2AF0E4
S11323F09E3F510568F0B6C000C15F3FECF3983EC4
S1132400DCF3869577956795B795F7959F5FC9F740
S1132410880F911D9695879597F90895E1E0660FC9
S1132420771F881FBB1F621773078407BA0720F042
S1132430621B730B840BBA0BEE1F88F7E0950895AB
S113244004D06894B111D9C00895BCD088F09F57C6
S113245090F0B92F9927B751A0F0D1F0660F771FEC
S1132460881F991F1AF0BA95C9F712C0B13081F0CC
S1132470C3D0B1E00895C0C0672F782F8827B85F14
S113248039F0B93FCCF3869577956795B395D9F72D
S11324903EF490958095709561957F4F8F4F9F4F37
S11324A00895E89409C097FB3EF490958095709543
S11324B061957F4F8F4F9F4F9923A9F0F92F96E98C
S11324C0BB279395F695879577956795B795F11101
S11324D0F8CFFAF4BB0F11F460FF1BC06F5F7F4F9E
S11324E08F4F9F4F16C0882311F096E911C07723B0
S11324F021F09EE8872F762F05C0662371F096E8B9
S1132500862F70E060E02AF09A95660F771F881F87
S1132510DAF7880F9695879597F90895990F00082B
S1132520550FAA0BE0E8FEEF16161706E807F907A1
S1132530C0F012161306E407F50798F0621B730B3C
S1132540840B950B39F40A2661F0232B242B252BBD
S113255021F408950A2609F4A140A6958FEF811D60
S1132560811D089597F99F6780E870E060E0089501
S11325709FEF80EC089500240A9416161706180697
S11325800906089500240A94121613061406050673
S11325900895092E0394000C11F4882352F0BB0F04
S11325A040F4BF2B11F460FF04C06F5F7F4F8F4F67
S11325B09F4F089557FD9058440F551F59F05F3FA2
S11325C071F04795880F97FB991F61F09F3F79F051
S11325D087950895121613061406551FF2CF4695D3
S11325E0F1DF08C0161617061806991FF1CF869555
S11325F07105610508940895E894BB276627772739
S1132600CB0197F908958ADF08F48FEF08950BD072
S1132610C0CFB1DF28F0B6DF18F0952309F0A2CFC0
S1132620A7CF1124EACFC6DFA0F3959FD1F3950F6E
S113263050E0551F629FF001729FBB27F00DB11D42
S1132640639FAA27F00DB11DAA1F649F6627B00DD2
S1132650A11D661F829F2227B00DA11D621F739FBB
S1132660B00DA11D621F839FA00D611D221F749FC9
S11326703327A00D611D231F849F600D211D822F10
S1132680762F6A2F11249F5750408AF0E1F0882357
S11326904AF0EE0FFF1FBB1F661F771F881F915064
S11326A05040A9F79E3F510570F05CCFA6CF5F3F25
S11326B0ECF3983EDCF3869577956795B795F79597
S11326C0E7959F5FC1F7FE2B880F911D969587951F
S11326D097F90895AA1BBB1B51E107C0AA1FBB1F92
S11326E0A617B70710F0A61BB70B881F991F5A959A
S11326F0A9F780959095BC01CD010895A1E21A2E09
S1132700AA1BBB1BFD010DC0AA1FBB1FEE1FFF1F91
S1132710A217B307E407F50720F0A21BB30BE40BE1
S1132720F50B661F771F881F991F1A9469F7609528
S11327307095809590959B01AC01BD01CF010895E2
S1132740A29FB001B39FC001A39F700D811D1124EE
S1132750911DB29F700D811D1124911D08950F9339
S11327601F93CF93DF93CDB7DEB72E970FB6F894B0
S1132770DEBF0FBECDBF0E891F8986E08C831A830E
S113278009838FEF9FE79E838D83AE01465E5F4F83
S1132790688D798DCE01019610D0EF81F885E00F18
S11327A0F11F10822E960FB6F894DEBF0FBECDBF78
S11327B0DF91CF911F910F9108952F923F924F92E5
S11327C05F926F927F928F929F92AF92BF92CF92BD
S11327D0DF92EF92FF920F931F93CF93DF93CDB7C6
S11327E0DEB72B970FB6F894DEBF0FBECDBF6C01DA
S11327F07B018A01FC0117821682838181FFBFC19C
S1132800CE0101963C01F6019381F70193FD859178
S113281093FF81917F01882309F4ADC1853239F496
S113282093FD859193FF81917F01853221F4B60157
S113283090E0D6D1E8CF912C212C312CFFE1F31577
S1132840D8F08B3279F038F4803279F08332A1F405
S1132850232D20611DC08D3261F0803369F4232D56
S1132860216016C0832D8260382EE32DE4603E2E55
S11328702AC0F32DF8601DC037FC2DC020ED280FB1
S11328802A3040F08E32B9F436FC75C1232D206411
S1132890322E19C036FE06C08AE0989E200D1124FF
S11328A0922E11C0EAE02E9E200D1124222EF32D2B
S11328B0F0623F2E08C08C3621F4832D8068382EB8
S11328C002C0883641F4F70193FD859193FF81910D
S11328D07F018111B3CF982F9F7D9554933028F4B5
S11328E00C5F1F4F9FE399830DC0833631F083370C
S11328F071F0833509F055C020C0F80180818983C7
S11329000E5F1F4F88248394912C530112C0280119
S1132910F2E04F0E511CF801A080B18036FE03C0D6
S1132920692D70E002C06FEF7FEFC5014ED14C01FD
S11329308201F32DFF773F2E15C0280122E0420EBD
S1132940511CF801A080B18036FE03C0692D70E0EF
S113295002C06FEF7FEFC5012DD14C01F32DF0685C
S11329603F2E820133FC19C0822D90E0881699060F
S1132970A0F4B60180E290E033D12A94F5CFF501BA
S113298037FC859137FE81915F01B60190E028D133
S113299021102A9421E0821A91088114910479F774
S11329A0E1C0843611F0893639F5F80137FE07C0E5
S11329B060817181828193810C5F1F4F08C06081A7
S11329C07181072E000C880B990B0E5F1F4FF32D9E
S11329D0FF763F2E97FF09C090958095709561957D
S11329E07F4F8F4F9F4FF0683F2E2AE030E0A301C6
S11329F033D1882E861844C0853731F4232D2F7E99
S1132A00B22E2AE030E025C0932D997FB92E8F365F
S1132A10C1F018F4883579F0AEC0803719F08837E2
S1132A2021F0A9C0E92FE061BE2EB4FE0DC0FB2D3C
S1132A30F460BF2E09C034FE0AC0292F2660B22ECE
S1132A4006C028E030E005C020E130E002C020E10B
S1132A5032E0F801B7FE07C0608171818281938101
S1132A600C5F1F4F06C06081718180E090E00E5FB3
S1132A701F4FA301F1D0882E8618FB2DFF773F2E20
S1132A8036FE0DC0232D2E7FA22E891458F434FE59
S1132A900BC032FC09C0832D8E7EA82E05C0B82C35
S1132AA0A32C03C0B82C01C0B92CA4FE0FC0FE0196
S1132AB0E80DF11D8081803321F49A2D997EA92E91
S1132AC009C0A2FE06C0B394B39404C08A2D8678CC
S1132AD009F0B394A3FC10C0A0FE06C0B21480F4A5
S1132AE0280C922C9B180DC0B21458F4B60180E245
S1132AF090E076D0B394F8CFB21418F42B1802C037
S1132B00982C212CA4FE0FC0B60180E390E068D07D
S1132B10A2FE16C0A1FC03C088E790E002C088E5CD
S1132B2090E0B6010CC08A2D867851F0A1FE02C057
S1132B308BE201C080E2A7FC8DE2B60190E050D0A8
S1132B40891430F4B60180E390E04AD09A94F8CF27
S1132B508A94F301E80DF11D8081B60190E040D024
S1132B608110F6CF222009F44ECEB60180E290E027
S1132B7037D02A94F7CFF6018681978102C08FEF70
S1132B809FEF2B960FB6F894DEBF0FBECDBFDF913B
S1132B90CF911F910F91FF90EF90DF90CF90BF9056
S1132BA0AF909F908F907F906F905F904F903F90E9
S1132BB02F900895FC010590615070400110D8F7E2
S1132BC0809590958E0F9F1F0895FC016150704071
S1132BD001900110D8F7809590958E0F9F1F08954E
S1132BE00F931F93CF93DF93FB01238121FD03C038
S1132BF08FEF9FEF2CC022FF16C04681578124819E
S1132C0035814217530744F4A081B1819D012F5FA0
S1132C103F4F318320838C93268137812F5F3F4F31
S1132C203783268314C08B01EC01FB010084F185FA
S1132C30E02D1995892BE1F6D80116968D919C917A
S1132C401797019617969C938E931697CE01DF9152
S1132C50CF911F910F910895FA01AA27283051F1BD
S1132C60203181F1E8946F936E7F6E5F7F4F8F4FB9
S1132C709F4FAF4FB1E03ED0B4E03CD0670F781F18
S1132C80891F9A1FA11D680F791F8A1F911DA11DFD
S1132C906A0F711D811D911DA11D20D009F4689436
S1132CA03F912AE0269F11243019305D3193DEF6DE
S1132CB0CF010895462F4770405D4193B3E00FD094
S1132CC0C9F7F6CF462F4F70405D4A3318F0495D7F
S1132CD031FD4052419302D0A9F7EACFB4E0A69562
S1132CE09795879577956795BA95C9F70097610584
S1132CF0710508959B01AC010A2E069457954795DA
S1132D0037952795BA95C9F7620F731F841F951FCE
S10B2D10A01D0895F894FFCF03
S1132D1801FFFF4001F000012A00566F6C746167DF
S1132D28653A00437572736F723A0048004C004369
S1132D387572736F7200486F6C6400576176650032
S1132D48546F67676C6500506C6F74206D7573748D
S1132D5820626520656E61626C656400666F72202E
S1132D68637572736F722075736167652120202003
S1132D7800746F20746F67676C6520706C6F7420C3
S1132D887479706521004D617820566F6C746167A1
S1132D98653A2025752E2530337556004D696E2009
S1132DA8566F6C746167653A2025752E2530337526
S1132DB85600506F7765722020202020204F4E0047
S1132DC8446973706C6179202020204F4E00537938
S1132DD87374656D20202020204F46460057616992
S10B2DE874696E672E2E2E00A3
S9030000FC
